{
  "_format": "hh-sol-artifact-1",
  "contractName": "TrustVault",
  "sourceName": "contracts/TrustVault.sol",
  "abi": [
    {
      "inputs": [
        {
          "internalType": "address",
          "name": "initialOwner",
          "type": "address"
        }
      ],
      "stateMutability": "nonpayable",
      "type": "constructor"
    },
    {
      "inputs": [
        {
          "internalType": "address",
          "name": "owner",
          "type": "address"
        }
      ],
      "name": "OwnableInvalidOwner",
      "type": "error"
    },
    {
      "inputs": [
        {
          "internalType": "address",
          "name": "account",
          "type": "address"
        }
      ],
      "name": "OwnableUnauthorizedAccount",
      "type": "error"
    },
    {
      "inputs": [],
      "name": "ReentrancyGuardReentrantCall",
      "type": "error"
    },
    {
      "anonymous": false,
      "inputs": [
        {
          "indexed": true,
          "internalType": "bytes32",
          "name": "documentId",
          "type": "bytes32"
        },
        {
          "indexed": true,
          "internalType": "address",
          "name": "professional",
          "type": "address"
        },
        {
          "indexed": false,
          "internalType": "string",
          "name": "role",
          "type": "string"
        },
        {
          "indexed": false,
          "internalType": "uint256",
          "name": "expiresAt",
          "type": "uint256"
        }
      ],
      "name": "AccessGranted",
      "type": "event"
    },
    {
      "anonymous": false,
      "inputs": [
        {
          "indexed": true,
          "internalType": "bytes32",
          "name": "documentId",
          "type": "bytes32"
        },
        {
          "indexed": true,
          "internalType": "address",
          "name": "actor",
          "type": "address"
        },
        {
          "indexed": false,
          "internalType": "string",
          "name": "action",
          "type": "string"
        },
        {
          "indexed": false,
          "internalType": "uint256",
          "name": "timestamp",
          "type": "uint256"
        }
      ],
      "name": "AccessLogged",
      "type": "event"
    },
    {
      "anonymous": false,
      "inputs": [
        {
          "indexed": true,
          "internalType": "bytes32",
          "name": "documentId",
          "type": "bytes32"
        },
        {
          "indexed": true,
          "internalType": "address",
          "name": "professional",
          "type": "address"
        },
        {
          "indexed": true,
          "internalType": "address",
          "name": "revokedBy",
          "type": "address"
        },
        {
          "indexed": false,
          "internalType": "uint256",
          "name": "timestamp",
          "type": "uint256"
        }
      ],
      "name": "AccessRevoked",
      "type": "event"
    },
    {
      "anonymous": false,
      "inputs": [
        {
          "indexed": true,
          "internalType": "bytes32",
          "name": "documentId",
          "type": "bytes32"
        },
        {
          "indexed": true,
          "internalType": "bytes32",
          "name": "caseId",
          "type": "bytes32"
        },
        {
          "indexed": false,
          "internalType": "string",
          "name": "ipfsCid",
          "type": "string"
        },
        {
          "indexed": false,
          "internalType": "address",
          "name": "uploadedBy",
          "type": "address"
        },
        {
          "indexed": false,
          "internalType": "uint256",
          "name": "timestamp",
          "type": "uint256"
        }
      ],
      "name": "DocumentRegistered",
      "type": "event"
    },
    {
      "anonymous": false,
      "inputs": [
        {
          "indexed": true,
          "internalType": "address",
          "name": "previousOwner",
          "type": "address"
        },
        {
          "indexed": true,
          "internalType": "address",
          "name": "newOwner",
          "type": "address"
        }
      ],
      "name": "OwnershipTransferred",
      "type": "event"
    },
    {
      "inputs": [],
      "name": "ACCESS_DURATION",
      "outputs": [
        {
          "internalType": "uint256",
          "name": "",
          "type": "uint256"
        }
      ],
      "stateMutability": "view",
      "type": "function"
    },
    {
      "inputs": [
        {
          "internalType": "bytes32",
          "name": "",
          "type": "bytes32"
        },
        {
          "internalType": "uint256",
          "name": "",
          "type": "uint256"
        }
      ],
      "name": "accessGrants",
      "outputs": [
        {
          "internalType": "address",
          "name": "professional",
          "type": "address"
        },
        {
          "internalType": "string",
          "name": "role",
          "type": "string"
        },
        {
          "internalType": "uint256",
          "name": "grantedAt",
          "type": "uint256"
        },
        {
          "internalType": "uint256",
          "name": "expiresAt",
          "type": "uint256"
        },
        {
          "internalType": "bool",
          "name": "isRevoked",
          "type": "bool"
        }
      ],
      "stateMutability": "view",
      "type": "function"
    },
    {
      "inputs": [
        {
          "internalType": "bytes32",
          "name": "",
          "type": "bytes32"
        },
        {
          "internalType": "uint256",
          "name": "",
          "type": "uint256"
        }
      ],
      "name": "accessLogs",
      "outputs": [
        {
          "internalType": "address",
          "name": "actor",
          "type": "address"
        },
        {
          "internalType": "string",
          "name": "action",
          "type": "string"
        },
        {
          "internalType": "uint256",
          "name": "timestamp",
          "type": "uint256"
        },
        {
          "internalType": "string",
          "name": "role",
          "type": "string"
        }
      ],
      "stateMutability": "view",
      "type": "function"
    },
    {
      "inputs": [
        {
          "internalType": "bytes32",
          "name": "",
          "type": "bytes32"
        },
        {
          "internalType": "uint256",
          "name": "",
          "type": "uint256"
        }
      ],
      "name": "caseDocuments",
      "outputs": [
        {
          "internalType": "bytes32",
          "name": "",
          "type": "bytes32"
        }
      ],
      "stateMutability": "view",
      "type": "function"
    },
    {
      "inputs": [
        {
          "internalType": "bytes32",
          "name": "",
          "type": "bytes32"
        }
      ],
      "name": "documents",
      "outputs": [
        {
          "internalType": "bytes32",
          "name": "caseId",
          "type": "bytes32"
        },
        {
          "internalType": "bytes32",
          "name": "keyHash",
          "type": "bytes32"
        },
        {
          "internalType": "string",
          "name": "ipfsCid",
          "type": "string"
        },
        {
          "internalType": "string",
          "name": "documentType",
          "type": "string"
        },
        {
          "internalType": "address",
          "name": "uploadedBy",
          "type": "address"
        },
        {
          "internalType": "uint256",
          "name": "uploadedAt",
          "type": "uint256"
        },
        {
          "internalType": "bool",
          "name": "isActive",
          "type": "bool"
        }
      ],
      "stateMutability": "view",
      "type": "function"
    },
    {
      "inputs": [
        {
          "internalType": "bytes32",
          "name": "documentId",
          "type": "bytes32"
        },
        {
          "internalType": "uint256",
          "name": "index",
          "type": "uint256"
        }
      ],
      "name": "getAccessLogEntry",
      "outputs": [
        {
          "components": [
            {
              "internalType": "address",
              "name": "actor",
              "type": "address"
            },
            {
              "internalType": "string",
              "name": "action",
              "type": "string"
            },
            {
              "internalType": "uint256",
              "name": "timestamp",
              "type": "uint256"
            },
            {
              "internalType": "string",
              "name": "role",
              "type": "string"
            }
          ],
          "internalType": "struct TrustVault.AccessLogEntry",
          "name": "",
          "type": "tuple"
        }
      ],
      "stateMutability": "view",
      "type": "function"
    },
    {
      "inputs": [
        {
          "internalType": "bytes32",
          "name": "documentId",
          "type": "bytes32"
        }
      ],
      "name": "getAccessLogLength",
      "outputs": [
        {
          "internalType": "uint256",
          "name": "",
          "type": "uint256"
        }
      ],
      "stateMutability": "view",
      "type": "function"
    },
    {
      "inputs": [
        {
          "internalType": "bytes32",
          "name": "caseId",
          "type": "bytes32"
        }
      ],
      "name": "getCaseDocuments",
      "outputs": [
        {
          "internalType": "bytes32[]",
          "name": "",
          "type": "bytes32[]"
        }
      ],
      "stateMutability": "view",
      "type": "function"
    },
    {
      "inputs": [
        {
          "internalType": "bytes32",
          "name": "documentId",
          "type": "bytes32"
        },
        {
          "internalType": "address",
          "name": "professional",
          "type": "address"
        },
        {
          "internalType": "string",
          "name": "role",
          "type": "string"
        }
      ],
      "name": "grantAccess",
      "outputs": [],
      "stateMutability": "nonpayable",
      "type": "function"
    },
    {
      "inputs": [
        {
          "internalType": "bytes32",
          "name": "documentId",
          "type": "bytes32"
        },
        {
          "internalType": "address",
          "name": "professional",
          "type": "address"
        }
      ],
      "name": "hasValidAccess",
      "outputs": [
        {
          "internalType": "bool",
          "name": "",
          "type": "bool"
        }
      ],
      "stateMutability": "view",
      "type": "function"
    },
    {
      "inputs": [],
      "name": "owner",
      "outputs": [
        {
          "internalType": "address",
          "name": "",
          "type": "address"
        }
      ],
      "stateMutability": "view",
      "type": "function"
    },
    {
      "inputs": [
        {
          "internalType": "bytes32",
          "name": "documentId",
          "type": "bytes32"
        },
        {
          "internalType": "bytes32",
          "name": "caseId",
          "type": "bytes32"
        },
        {
          "internalType": "bytes32",
          "name": "keyHash",
          "type": "bytes32"
        },
        {
          "internalType": "string",
          "name": "ipfsCid",
          "type": "string"
        },
        {
          "internalType": "string",
          "name": "documentType",
          "type": "string"
        }
      ],
      "name": "registerDocument",
      "outputs": [],
      "stateMutability": "nonpayable",
      "type": "function"
    },
    {
      "inputs": [],
      "name": "renounceOwnership",
      "outputs": [],
      "stateMutability": "nonpayable",
      "type": "function"
    },
    {
      "inputs": [
        {
          "internalType": "bytes32",
          "name": "documentId",
          "type": "bytes32"
        },
        {
          "internalType": "address",
          "name": "professional",
          "type": "address"
        }
      ],
      "name": "revokeAccess",
      "outputs": [],
      "stateMutability": "nonpayable",
      "type": "function"
    },
    {
      "inputs": [
        {
          "internalType": "address",
          "name": "newOwner",
          "type": "address"
        }
      ],
      "name": "transferOwnership",
      "outputs": [],
      "stateMutability": "nonpayable",
      "type": "function"
    }
  ],
  "bytecode": "0x608060405234801561001057600080fd5b5060405162001a7538038062001a75833981016040819052610031916100c4565b806001600160a01b03811661006057604051631e4fbdf760e01b81526000600482015260240160405180910390fd5b61006981610074565b5050600180556100f4565b600080546001600160a01b038381166001600160a01b0319831681178455604051919092169283917f8be0079c531659141344cd1fd0a4f28419497f9722a3daafe3b4186f6b6457e09190a35050565b6000602082840312156100d657600080fd5b81516001600160a01b03811681146100ed57600080fd5b9392505050565b61197180620001046000396000f3fe608060405234801561001057600080fd5b50600436106100f55760003560e01c8063715018a611610097578063a6c7b18411610066578063a6c7b18414610226578063d9d98dc714610246578063f2fde38b14610259578063ff35020b1461026c57600080fd5b8063715018a6146101cd5780638d53b208146101d55780638da5cb5b146101e8578063a6b59fc01461020357600080fd5b80632b2805db116100d35780632b2805db1461015c5780633532b2b214610182578063448df15e146101a357806363a0cce6146101c357600080fd5b80630e169119146100fa5780631e1a1a921461010f578063281a9d9d1461013c575b600080fd5b61010d6101083660046113e8565b61028f565b005b61012261011d366004611442565b610561565b6040516101339594939291906114aa565b60405180910390f35b61014f61014a3660046114ed565b610648565b6040516101339190611506565b61016f61016a3660046114ed565b6106aa565b604051610133979695949392919061154a565b610195610190366004611442565b610806565b604051908152602001610133565b6101956101b13660046114ed565b60009081526004602052604090205490565b6101956202a30081565b61010d610837565b61010d6101e33660046115a6565b61084b565b6000546040516001600160a01b039091168152602001610133565b610216610211366004611442565b610b08565b60405161013394939291906115d2565b610239610234366004611442565b610c6c565b6040516101339190611619565b61010d610254366004611677565b610e84565b61010d610267366004611704565b6111cb565b61027f61027a3660046115a6565b611209565b6040519015158152602001610133565b6102976112dc565b61029f611309565b60008481526002602052604090206006015460ff166103175760405162461bcd60e51b815260206004820152602960248201527f54727573745661756c743a20646f63756d656e74206e6f7420666f756e64206f6044820152681c8819195b195d195960ba1b60648201526084015b60405180910390fd5b60006103266202a30042611726565b9050600360008681526020019081526020016000206040518060a00160405280866001600160a01b0316815260200185858080601f01602080910402602001604051908101604052809392919081815260200183838082843760009201829052509385525050426020808501919091526040840187905260609093018290525083546001808201865594825290829020835160059092020180546001600160a01b0319166001600160a01b039092169190911781559082015191929091908201906103f190826117e8565b50604082810151600283015560608084015160038401556080938401516004938401805460ff1916911515919091179055600089815260209384528290208251948501835233855282518084018452600e81526d1858d8d95cdcd7d9dc985b9d195960921b818601528585015242858401528251601f88018590048502810185019093528683529392908301919087908790819084018382808284376000920182905250939094525050835460018082018655948252602091829020845160049092020180546001600160a01b0319166001600160a01b03909216919091178155908301519293909290830191506104e990826117e8565b50604082015160028201556060820151600382019061050890826117e8565b505050836001600160a01b0316857fa51984b984be1deb9484d6f0cc88f829e748c0a1c98758198352672a6b28b2e6858585604051610549939291906118d1565b60405180910390a35061055b60018055565b50505050565b6003602052816000526040600020818154811061057d57600080fd5b6000918252602090912060059091020180546001820180546001600160a01b0390921694509192506105ae9061175d565b80601f01602080910402602001604051908101604052809291908181526020018280546105da9061175d565b80156106275780601f106105fc57610100808354040283529160200191610627565b820191906000526020600020905b81548152906001019060200180831161060a57829003601f168201915b50505050600283015460038401546004909401549293909290915060ff1685565b60008181526005602090815260409182902080548351818402810184019094528084526060939283018282801561069e57602002820191906000526020600020905b81548152602001906001019080831161068a575b50505050509050919050565b6002602081905260009182526040909120805460018201549282018054919392916106d49061175d565b80601f01602080910402602001604051908101604052809291908181526020018280546107009061175d565b801561074d5780601f106107225761010080835404028352916020019161074d565b820191906000526020600020905b81548152906001019060200180831161073057829003601f168201915b5050505050908060030180546107629061175d565b80601f016020809104026020016040519081016040528092919081815260200182805461078e9061175d565b80156107db5780601f106107b0576101008083540402835291602001916107db565b820191906000526020600020905b8154815290600101906020018083116107be57829003601f168201915b505050506004830154600584015460069094015492936001600160a01b039091169290915060ff1687565b6005602052816000526040600020818154811061082257600080fd5b90600052602060002001600091509150505481565b61083f6112dc565b6108496000611333565b565b6108536112dc565b61085b611309565b6000828152600360205260408120905b8154811015610af957826001600160a01b0316828281548110610890576108906118f5565b60009182526020909120600590910201546001600160a01b03161480156108dd57508181815481106108c4576108c46118f5565b600091825260209091206004600590920201015460ff16155b15610af15760018282815481106108f6576108f66118f5565b906000526020600020906005020160040160006101000a81548160ff021916908315150217905550600460008581526020019081526020016000206040518060800160405280336001600160a01b031681526020016040518060400160405280600e81526020016d1858d8d95cdcd7dc995d9bdad95960921b815250815260200142815260200184848154811061098f5761098f6118f5565b906000526020600020906005020160010180546109ab9061175d565b80601f01602080910402602001604051908101604052809291908181526020018280546109d79061175d565b8015610a245780601f106109f957610100808354040283529160200191610a24565b820191906000526020600020905b815481529060010190602001808311610a0757829003601f168201915b5050509190925250508154600180820184556000938452602093849020835160049093020180546001600160a01b0319166001600160a01b03909316929092178255928201519192909190820190610a7c90826117e8565b506040820151600282015560608201516003820190610a9b90826117e8565b505050336001600160a01b0316836001600160a01b0316857f4c4c4b887a779997bb48fdefff9f7a6e2ab598176538082eb4334267a22c0d5842604051610ae491815260200190565b60405180910390a4610af9565b60010161086b565b5050610b0460018055565b5050565b60046020528160005260406000208181548110610b2457600080fd5b6000918252602090912060049091020180546001820180546001600160a01b039092169450919250610b559061175d565b80601f0160208091040260200160405190810160405280929190818152602001828054610b819061175d565b8015610bce5780601f10610ba357610100808354040283529160200191610bce565b820191906000526020600020905b815481529060010190602001808311610bb157829003601f168201915b505050505090806002015490806003018054610be99061175d565b80601f0160208091040260200160405190810160405280929190818152602001828054610c159061175d565b8015610c625780601f10610c3757610100808354040283529160200191610c62565b820191906000526020600020905b815481529060010190602001808311610c4557829003601f168201915b5050505050905084565b610ca0604051806080016040528060006001600160a01b031681526020016060815260200160008152602001606081525090565b6000838152600460205260409020548210610cfd5760405162461bcd60e51b815260206004820152601f60248201527f54727573745661756c743a20696e646578206f7574206f6620626f756e647300604482015260640161030e565b6000838152600460205260409020805483908110610d1d57610d1d6118f5565b6000918252602091829020604080516080810190915260049092020180546001600160a01b031682526001810180549293919291840191610d5d9061175d565b80601f0160208091040260200160405190810160405280929190818152602001828054610d899061175d565b8015610dd65780601f10610dab57610100808354040283529160200191610dd6565b820191906000526020600020905b815481529060010190602001808311610db957829003601f168201915b5050505050815260200160028201548152602001600382018054610df99061175d565b80601f0160208091040260200160405190810160405280929190818152602001828054610e259061175d565b8015610e725780601f10610e4757610100808354040283529160200191610e72565b820191906000526020600020905b815481529060010190602001808311610e5557829003601f168201915b50505050508152505090505b92915050565b610e8c6112dc565b610e94611309565b6000878152600260208190526040909120018054610eb19061175d565b159050610f105760405162461bcd60e51b815260206004820152602760248201527f54727573745661756c743a20646f63756d656e7420616c7265616479207265676044820152661a5cdd195c995960ca1b606482015260840161030e565b82610f695760405162461bcd60e51b8152602060048201526024808201527f54727573745661756c743a2049504653204349442063616e6e6f7420626520656044820152636d70747960e01b606482015260840161030e565b6040518060e0016040528087815260200186815260200185858080601f016020809104026020016040519081016040528093929190818152602001838380828437600092019190915250505090825250604080516020601f860181900481028201810190925284815291810191908590859081908401838280828437600092018290525093855250503360208085019190915242604080860191909152600160609095018590528c8452600280835293819020865181559186015194820194909455928401519183019161103e9150826117e8565b506060820151600382019061105390826117e8565b50608082810151600483810180546001600160a01b03199081166001600160a01b039485161790915560a086015160058087019190915560c0909601516006909501805460ff19169515159590951790945560008b815260209586526040808220805460018181018355918452888420018f90558e83528388528183208251968701835233875282518084018452600a8152691c9959da5cdd195c995960b21b818b0152878a0190815242888501528351808501909452858452633ab9b2b960e11b848b0152606088019390935280548083018255908452979092208551979093029092018054909516959092169490941783559251909282019061115890826117e8565b50604082015160028201556060820151600382019061117790826117e8565b50505085877f2671dc9d08ea8f936094112d19232634b787df25b5b013400ab58363d8a9d241868633426040516111b1949392919061190b565b60405180910390a36111c260018055565b50505050505050565b6111d36112dc565b6001600160a01b0381166111fd57604051631e4fbdf760e01b81526000600482015260240161030e565b61120681611333565b50565b6000828152600360205260408120815b81548110156112d157836001600160a01b031682828154811061123e5761123e6118f5565b60009182526020909120600590910201546001600160a01b031614801561128b5750818181548110611272576112726118f5565b600091825260209091206004600590920201015460ff16155b80156112b957508181815481106112a4576112a46118f5565b90600052602060002090600502016003015442105b156112c957600192505050610e7e565b600101611219565b506000949350505050565b6000546001600160a01b031633146108495760405163118cdaa760e01b815233600482015260240161030e565b60026001540361132c57604051633ee5aeb560e01b815260040160405180910390fd5b6002600155565b600080546001600160a01b038381166001600160a01b0319831681178455604051919092169283917f8be0079c531659141344cd1fd0a4f28419497f9722a3daafe3b4186f6b6457e09190a35050565b80356001600160a01b038116811461139a57600080fd5b919050565b60008083601f8401126113b157600080fd5b50813567ffffffffffffffff8111156113c957600080fd5b6020830191508360208285010111156113e157600080fd5b9250929050565b600080600080606085870312156113fe57600080fd5b8435935061140e60208601611383565b9250604085013567ffffffffffffffff81111561142a57600080fd5b6114368782880161139f565b95989497509550505050565b6000806040838503121561145557600080fd5b50508035926020909101359150565b6000815180845260005b8181101561148a5760208185018101518683018201520161146e565b506000602082860101526020601f19601f83011685010191505092915050565b6001600160a01b038616815260a0602082018190526000906114ce90830187611464565b6040830195909552506060810192909252151560809091015292915050565b6000602082840312156114ff57600080fd5b5035919050565b6020808252825182820181905260009190848201906040850190845b8181101561153e57835183529284019291840191600101611522565b50909695505050505050565b87815286602082015260e06040820152600061156960e0830188611464565b828103606084015261157b8188611464565b6001600160a01b03969096166080840152505060a0810192909252151560c090910152949350505050565b600080604083850312156115b957600080fd5b823591506115c960208401611383565b90509250929050565b6001600160a01b03851681526080602082018190526000906115f690830186611464565b846040840152828103606084015261160e8185611464565b979650505050505050565b602080825282516001600160a01b0316828201528201516080604083015260009061164760a0840182611464565b9050604084015160608401526060840151601f1984830301608085015261166e8282611464565b95945050505050565b600080600080600080600060a0888a03121561169257600080fd5b873596506020880135955060408801359450606088013567ffffffffffffffff808211156116bf57600080fd5b6116cb8b838c0161139f565b909650945060808a01359150808211156116e457600080fd5b506116f18a828b0161139f565b989b979a50959850939692959293505050565b60006020828403121561171657600080fd5b61171f82611383565b9392505050565b80820180821115610e7e57634e487b7160e01b600052601160045260246000fd5b634e487b7160e01b600052604160045260246000fd5b600181811c9082168061177157607f821691505b60208210810361179157634e487b7160e01b600052602260045260246000fd5b50919050565b601f8211156117e3576000816000526020600020601f850160051c810160208610156117c05750805b601f850160051c820191505b818110156117df578281556001016117cc565b5050505b505050565b815167ffffffffffffffff81111561180257611802611747565b61181681611810845461175d565b84611797565b602080601f83116001811461184b57600084156118335750858301515b600019600386901b1c1916600185901b1785556117df565b600085815260208120601f198616915b8281101561187a5788860151825594840194600190910190840161185b565b50858210156118985787850151600019600388901b60f8161c191681555b5050505050600190811b01905550565b81835281816020850137506000828201602090810191909152601f909101601f19169091010190565b6040815260006118e56040830185876118a8565b9050826020830152949350505050565b634e487b7160e01b600052603260045260246000fd5b60608152600061191f6060830186886118a8565b6001600160a01b0394909416602083015250604001529291505056fea26469706673582212203ee9d94b89acee05e1823fe8023fe6eaac37a511de604156465a5b1d9e9fc0c164736f6c63430008180033",
  "linkReferences": {},
  "deployedLinkReferences": {}
}