{"contracts/Escrow.sol":{"Escrow":{"abi":[{"inputs":[{"internalType":"address","name":"initialOwner","type":"address"}],"stateMutability":"nonpayable","type":"constructor"},{"inputs":[{"internalType":"address","name":"owner","type":"address"}],"name":"OwnableInvalidOwner","type":"error"},{"inputs":[{"internalType":"address","name":"account","type":"address"}],"name":"OwnableUnauthorizedAccount","type":"error"},{"inputs":[],"name":"ReentrancyGuardReentrantCall","type":"error"},{"anonymous":false,"inputs":[{"indexed":true,"internalType":"bytes32","name":"depositId","type":"bytes32"},{"indexed":true,"internalType":"bytes32","name":"caseId","type":"bytes32"},{"indexed":false,"internalType":"address","name":"payer","type":"address"},{"indexed":false,"internalType":"address","name":"payee","type":"address"},{"indexed":false,"internalType":"uint256","name":"amount","type":"uint256"},{"indexed":false,"internalType":"string","name":"milestone","type":"string"}],"name":"Deposited","type":"event"},{"anonymous":false,"inputs":[{"indexed":true,"internalType":"address","name":"previousOwner","type":"address"},{"indexed":true,"internalType":"address","name":"newOwner","type":"address"}],"name":"OwnershipTransferred","type":"event"},{"anonymous":false,"inputs":[{"indexed":true,"internalType":"bytes32","name":"depositId","type":"bytes32"},{"indexed":false,"internalType":"address","name":"payer","type":"address"},{"indexed":false,"internalType":"uint256","name":"amount","type":"uint256"}],"name":"Refunded","type":"event"},{"anonymous":false,"inputs":[{"indexed":true,"internalType":"bytes32","name":"depositId","type":"bytes32"},{"indexed":false,"internalType":"address","name":"payee","type":"address"},{"indexed":false,"internalType":"uint256","name":"amount","type":"uint256"},{"indexed":false,"internalType":"uint256","name":"timestamp","type":"uint256"}],"name":"Released","type":"event"},{"inputs":[{"internalType":"bytes32","name":"","type":"bytes32"},{"internalType":"uint256","name":"","type":"uint256"}],"name":"caseDeposits","outputs":[{"internalType":"bytes32","name":"","type":"bytes32"}],"stateMutability":"view","type":"function"},{"inputs":[{"internalType":"bytes32","name":"depositId","type":"bytes32"},{"internalType":"bytes32","name":"caseId","type":"bytes32"},{"internalType":"address","name":"payee","type":"address"},{"internalType":"string","name":"milestone","type":"string"}],"name":"deposit","outputs":[],"stateMutability":"payable","type":"function"},{"inputs":[{"internalType":"bytes32","name":"","type":"bytes32"}],"name":"deposits","outputs":[{"internalType":"bytes32","name":"caseId","type":"bytes32"},{"internalType":"address","name":"payer","type":"address"},{"internalType":"address","name":"payee","type":"address"},{"internalType":"uint256","name":"amount","type":"uint256"},{"internalType":"string","name":"milestone","type":"string"},{"internalType":"bool","name":"isReleased","type":"bool"},{"internalType":"bool","name":"isRefunded","type":"bool"},{"internalType":"uint256","name":"depositedAt","type":"uint256"},{"internalType":"uint256","name":"releasedAt","type":"uint256"}],"stateMutability":"view","type":"function"},{"inputs":[],"name":"getBalance","outputs":[{"internalType":"uint256","name":"","type":"uint256"}],"stateMutability":"view","type":"function"},{"inputs":[],"name":"owner","outputs":[{"internalType":"address","name":"","type":"address"}],"stateMutability":"view","type":"function"},{"inputs":[{"internalType":"bytes32","name":"depositId","type":"bytes32"}],"name":"refund","outputs":[],"stateMutability":"nonpayable","type":"function"},{"inputs":[{"internalType":"bytes32","name":"depositId","type":"bytes32"}],"name":"release","outputs":[],"stateMutability":"nonpayable","type":"function"},{"inputs":[],"name":"renounceOwnership","outputs":[],"stateMutability":"nonpayable","type":"function"},{"inputs":[],"name":"totalHeld","outputs":[{"internalType":"uint256","name":"","type":"uint256"}],"stateMutability":"view","type":"function"},{"inputs":[{"internalType":"address","name":"newOwner","type":"address"}],"name":"transferOwnership","outputs":[],"stateMutability":"nonpayable","type":"function"}],"evm":{"bytecode":{"linkReferences":{},"object":"608060405234801561001057600080fd5b5060405161102638038061102683398101604081905261002f916100c2565b806001600160a01b03811661005e57604051631e4fbdf760e01b81526000600482015260240160405180910390fd5b61006781610072565b5050600180556100f2565b600080546001600160a01b038381166001600160a01b0319831681178455604051919092169283917f8be0079c531659141344cd1fd0a4f28419497f9722a3daafe3b4186f6b6457e09190a35050565b6000602082840312156100d457600080fd5b81516001600160a01b03811681146100eb57600080fd5b9392505050565b610f25806101016000396000f3fe6080604052600436106100915760003560e01c80637249fbb6116100595780637249fbb6146101445780638da5cb5b14610164578063ca0c3ad51461018c578063f2fde38b1461019f578063f43cc773146101bf57600080fd5b806312065fe0146100965780633d4dff7b146100b8578063637fd0f7146100ed57806367d42a8b1461010d578063715018a61461012f575b600080fd5b3480156100a257600080fd5b50475b6040519081526020015b60405180910390f35b3480156100c457600080fd5b506100d86100d3366004610b46565b6101d5565b6040516100af99989796959493929190610b5f565b3480156100f957600080fd5b506100a5610108366004610c04565b6102bb565b34801561011957600080fd5b5061012d610128366004610b46565b6102ec565b005b34801561013b57600080fd5b5061012d61054a565b34801561015057600080fd5b5061012d61015f366004610b46565b61055e565b34801561017057600080fd5b506000546040516001600160a01b0390911681526020016100af565b61012d61019a366004610c42565b610792565b3480156101ab57600080fd5b5061012d6101ba366004610cd6565b610a64565b3480156101cb57600080fd5b506100a560045481565b60026020819052600091825260409091208054600182015492820154600383015460048401805493956001600160a01b039081169593169391929161021990610cf8565b80601f016020809104026020016040519081016040528092919081815260200182805461024590610cf8565b80156102925780601f1061026757610100808354040283529160200191610292565b820191906000526020600020905b81548152906001019060200180831161027557829003601f168201915b50505060058401546006850154600790950154939460ff80831695610100909304169350915089565b600360205281600052604060002081815481106102d757600080fd5b90600052602060002001600091509150505481565b6102f4610a9f565b6102fc610acc565b600081815260026020526040902060018101546001600160a01b03166103655760405162461bcd60e51b8152602060048201526019602482015278115cd8dc9bddce8819195c1bdcda5d081b9bdd08199bdd5b99603a1b60448201526064015b60405180910390fd5b600581015460ff16156103b55760405162461bcd60e51b8152602060048201526018602482015277115cd8dc9bddce88185b1c9958591e481c995b19585cd95960421b604482015260640161035c565b6005810154610100900460ff161561040a5760405162461bcd60e51b8152602060048201526018602482015277115cd8dc9bddce88185b1c9958591e481c99599d5b99195960421b604482015260640161035c565b60058101805460ff19166001179055426007820155600381015460048054600090610436908490610d48565b9091555050600281015460038201546040516000926001600160a01b031691908381818185875af1925050503d806000811461048e576040519150601f19603f3d011682016040523d82523d6000602084013e610493565b606091505b50509050806104e45760405162461bcd60e51b815260206004820152601760248201527f457363726f773a207472616e73666572206661696c6564000000000000000000604482015260640161035c565b60028201546003830154604080516001600160a01b0390931683526020830191909152429082015283907fbaa21fb6000fbb6d014fac9cd1b0726799e6f352a967157a59f4b2da8ef32211906060015b60405180910390a2505061054760018055565b50565b610552610a9f565b61055c6000610af6565b565b610566610a9f565b61056e610acc565b600081815260026020526040902060018101546001600160a01b03166105d25760405162461bcd60e51b8152602060048201526019602482015278115cd8dc9bddce8819195c1bdcda5d081b9bdd08199bdd5b99603a1b604482015260640161035c565b600581015460ff16156106225760405162461bcd60e51b8152602060048201526018602482015277115cd8dc9bddce88185b1c9958591e481c995b19585cd95960421b604482015260640161035c565b6005810154610100900460ff16156106775760405162461bcd60e51b8152602060048201526018602482015277115cd8dc9bddce88185b1c9958591e481c99599d5b99195960421b604482015260640161035c565b60058101805461ff00191661010017905560038101546004805460009061069f908490610d48565b9091555050600181015460038201546040516000926001600160a01b031691908381818185875af1925050503d80600081146106f7576040519150601f19603f3d011682016040523d82523d6000602084013e6106fc565b606091505b50509050806107455760405162461bcd60e51b8152602060048201526015602482015274115cd8dc9bddce881c99599d5b990819985a5b1959605a1b604482015260640161035c565b60018201546003830154604080516001600160a01b039093168352602083019190915284917ff552ca82e113ac3c539c3d617f29fcd19c172a0c75dad017555c9e109f7fe1839101610534565b61079a610acc565b600034116107ea5760405162461bcd60e51b815260206004820152601f60248201527f457363726f773a206465706f73697420616d6f756e7420726571756972656400604482015260640161035c565b6000858152600260205260409020600101546001600160a01b0316156108525760405162461bcd60e51b815260206004820181905260248201527f457363726f773a206465706f736974496420616c726561647920657869737473604482015260640161035c565b6001600160a01b0383166108a05760405162461bcd60e51b8152602060048201526015602482015274457363726f773a20696e76616c696420706179656560581b604482015260640161035c565b604051806101200160405280858152602001336001600160a01b03168152602001846001600160a01b0316815260200134815260200183838080601f0160208091040260200160405190810160405280939291908181526020018383808284376000920182905250938552505050602080830182905260408084018390524260608086019190915260809485018490528a845260028084529382902086518155928601516001840180546001600160a01b03199081166001600160a01b039384161790915592870151948401805490931694169390931790559083015160038201559082015160048201906109959082610dc8565b5060a082015160058201805460c085015161ffff1990911692151561ff00191692909217610100921515830217905560e08301516006830155909101516007909101556000848152600360209081526040822080546001810182559083529082200186905560048054349290610a0c908490610e88565b9250508190555083857f88b154d813cf2279b5bcdb91b9790011bd3f2b47a6676cfbe59a9628fa3fbc6e3386348787604051610a4c959493929190610e9b565b60405180910390a3610a5d60018055565b5050505050565b610a6c610a9f565b6001600160a01b038116610a9657604051631e4fbdf760e01b81526000600482015260240161035c565b61054781610af6565b6000546001600160a01b0316331461055c5760405163118cdaa760e01b815233600482015260240161035c565b600260015403610aef57604051633ee5aeb560e01b815260040160405180910390fd5b6002600155565b600080546001600160a01b038381166001600160a01b0319831681178455604051919092169283917f8be0079c531659141344cd1fd0a4f28419497f9722a3daafe3b4186f6b6457e09190a35050565b600060208284031215610b5857600080fd5b5035919050565b60006101208b8352602060018060a01b03808d166020860152808c1660408601525089606085015281608085015288518083860152600092505b80831015610bb857898301820151858401610140015291810191610b99565b6101409250600083828701015282601f19601f8301168601019350505050610be460a083018715159052565b84151560c083015260e08201939093526101000152979650505050505050565b60008060408385031215610c1757600080fd5b50508035926020909101359150565b80356001600160a01b0381168114610c3d57600080fd5b919050565b600080600080600060808688031215610c5a57600080fd5b8535945060208601359350610c7160408701610c26565b9250606086013567ffffffffffffffff80821115610c8e57600080fd5b818801915088601f830112610ca257600080fd5b813581811115610cb157600080fd5b896020828501011115610cc357600080fd5b9699959850939650602001949392505050565b600060208284031215610ce857600080fd5b610cf182610c26565b9392505050565b600181811c90821680610d0c57607f821691505b602082108103610d2c57634e487b7160e01b600052602260045260246000fd5b50919050565b634e487b7160e01b600052601160045260246000fd5b81810381811115610d5b57610d5b610d32565b92915050565b634e487b7160e01b600052604160045260246000fd5b601f821115610dc3576000816000526020600020601f850160051c81016020861015610da05750805b601f850160051c820191505b81811015610dbf57828155600101610dac565b5050505b505050565b815167ffffffffffffffff811115610de257610de2610d61565b610df681610df08454610cf8565b84610d77565b602080601f831160018114610e2b5760008415610e135750858301515b600019600386901b1c1916600185901b178555610dbf565b600085815260208120601f198616915b82811015610e5a57888601518255948401946001909101908401610e3b565b5085821015610e785787850151600019600388901b60f8161c191681555b5050505050600190811b01905550565b80820180821115610d5b57610d5b610d32565b6001600160a01b038681168252851660208201526040810184905260806060820181905281018290526000828460a0840137600060a0848401015260a0601f19601f8501168301019050969550505050505056fea264697066735822122040b259a37a0160ef902376d5c5111f3e6a4d6cc530b3208f770e44b72b178a2264736f6c63430008180033","opcodes":"PUSH1 0x80 PUSH1 0x40 MSTORE CALLVALUE DUP1 ISZERO PUSH2 0x10 JUMPI PUSH1 0x0 DUP1 REVERT JUMPDEST POP PUSH1 0x40 MLOAD PUSH2 0x1026 CODESIZE SUB DUP1 PUSH2 0x1026 DUP4 CODECOPY DUP2 ADD PUSH1 0x40 DUP2 SWAP1 MSTORE PUSH2 0x2F SWAP2 PUSH2 0xC2 JUMP JUMPDEST DUP1 PUSH1 0x1 PUSH1 0x1 PUSH1 0xA0 SHL SUB DUP2 AND PUSH2 0x5E JUMPI PUSH1 0x40 MLOAD PUSH4 0x1E4FBDF7 PUSH1 0xE0 SHL DUP2 MSTORE PUSH1 0x0 PUSH1 0x4 DUP3 ADD MSTORE PUSH1 0x24 ADD PUSH1 0x40 MLOAD DUP1 SWAP2 SUB SWAP1 REVERT JUMPDEST PUSH2 0x67 DUP2 PUSH2 0x72 JUMP JUMPDEST POP POP PUSH1 0x1 DUP1 SSTORE PUSH2 0xF2 JUMP JUMPDEST PUSH1 0x0 DUP1 SLOAD PUSH1 0x1 PUSH1 0x1 PUSH1 0xA0 SHL SUB DUP4 DUP2 AND PUSH1 0x1 PUSH1 0x1 PUSH1 0xA0 SHL SUB NOT DUP4 AND DUP2 OR DUP5 SSTORE PUSH1 0x40 MLOAD SWAP2 SWAP1 SWAP3 AND SWAP3 DUP4 SWAP2 PUSH32 0x8BE0079C531659141344CD1FD0A4F28419497F9722A3DAAFE3B4186F6B6457E0 SWAP2 SWAP1 LOG3 POP POP JUMP JUMPDEST PUSH1 0x0 PUSH1 0x20 DUP3 DUP5 SUB SLT ISZERO PUSH2 0xD4 JUMPI PUSH1 0x0 DUP1 REVERT JUMPDEST DUP2 MLOAD PUSH1 0x1 PUSH1 0x1 PUSH1 0xA0 SHL SUB DUP2 AND DUP2 EQ PUSH2 0xEB JUMPI PUSH1 0x0 DUP1 REVERT JUMPDEST SWAP4 SWAP3 POP POP POP JUMP JUMPDEST PUSH2 0xF25 DUP1 PUSH2 0x101 PUSH1 0x0 CODECOPY PUSH1 0x0 RETURN INVALID PUSH1 0x80 PUSH1 0x40 MSTORE PUSH1 0x4 CALLDATASIZE LT PUSH2 0x91 JUMPI PUSH1 0x0 CALLDATALOAD PUSH1 0xE0 SHR DUP1 PUSH4 0x7249FBB6 GT PUSH2 0x59 JUMPI DUP1 PUSH4 0x7249FBB6 EQ PUSH2 0x144 JUMPI DUP1 PUSH4 0x8DA5CB5B EQ PUSH2 0x164 JUMPI DUP1 PUSH4 0xCA0C3AD5 EQ PUSH2 0x18C JUMPI DUP1 PUSH4 0xF2FDE38B EQ PUSH2 0x19F JUMPI DUP1 PUSH4 0xF43CC773 EQ PUSH2 0x1BF JUMPI PUSH1 0x0 DUP1 REVERT JUMPDEST DUP1 PUSH4 0x12065FE0 EQ PUSH2 0x96 JUMPI DUP1 PUSH4 0x3D4DFF7B EQ PUSH2 0xB8 JUMPI DUP1 PUSH4 0x637FD0F7 EQ PUSH2 0xED JUMPI DUP1 PUSH4 0x67D42A8B EQ PUSH2 0x10D JUMPI DUP1 PUSH4 0x715018A6 EQ PUSH2 0x12F JUMPI JUMPDEST PUSH1 0x0 DUP1 REVERT JUMPDEST CALLVALUE DUP1 ISZERO PUSH2 0xA2 JUMPI PUSH1 0x0 DUP1 REVERT JUMPDEST POP SELFBALANCE JUMPDEST PUSH1 0x40 MLOAD SWAP1 DUP2 MSTORE PUSH1 0x20 ADD JUMPDEST PUSH1 0x40 MLOAD DUP1 SWAP2 SUB SWAP1 RETURN JUMPDEST CALLVALUE DUP1 ISZERO PUSH2 0xC4 JUMPI PUSH1 0x0 DUP1 REVERT JUMPDEST POP PUSH2 0xD8 PUSH2 0xD3 CALLDATASIZE PUSH1 0x4 PUSH2 0xB46 JUMP JUMPDEST PUSH2 0x1D5 JUMP JUMPDEST PUSH1 0x40 MLOAD PUSH2 0xAF SWAP10 SWAP9 SWAP8 SWAP7 SWAP6 SWAP5 SWAP4 SWAP3 SWAP2 SWAP1 PUSH2 0xB5F JUMP JUMPDEST CALLVALUE DUP1 ISZERO PUSH2 0xF9 JUMPI PUSH1 0x0 DUP1 REVERT JUMPDEST POP PUSH2 0xA5 PUSH2 0x108 CALLDATASIZE PUSH1 0x4 PUSH2 0xC04 JUMP JUMPDEST PUSH2 0x2BB JUMP JUMPDEST CALLVALUE DUP1 ISZERO PUSH2 0x119 JUMPI PUSH1 0x0 DUP1 REVERT JUMPDEST POP PUSH2 0x12D PUSH2 0x128 CALLDATASIZE PUSH1 0x4 PUSH2 0xB46 JUMP JUMPDEST PUSH2 0x2EC JUMP JUMPDEST STOP JUMPDEST CALLVALUE DUP1 ISZERO PUSH2 0x13B JUMPI PUSH1 0x0 DUP1 REVERT JUMPDEST POP PUSH2 0x12D PUSH2 0x54A JUMP JUMPDEST CALLVALUE DUP1 ISZERO PUSH2 0x150 JUMPI PUSH1 0x0 DUP1 REVERT JUMPDEST POP PUSH2 0x12D PUSH2 0x15F CALLDATASIZE PUSH1 0x4 PUSH2 0xB46 JUMP JUMPDEST PUSH2 0x55E JUMP JUMPDEST CALLVALUE DUP1 ISZERO PUSH2 0x170 JUMPI PUSH1 0x0 DUP1 REVERT JUMPDEST POP PUSH1 0x0 SLOAD PUSH1 0x40 MLOAD PUSH1 0x1 PUSH1 0x1 PUSH1 0xA0 SHL SUB SWAP1 SWAP2 AND DUP2 MSTORE PUSH1 0x20 ADD PUSH2 0xAF JUMP JUMPDEST PUSH2 0x12D PUSH2 0x19A CALLDATASIZE PUSH1 0x4 PUSH2 0xC42 JUMP JUMPDEST PUSH2 0x792 JUMP JUMPDEST CALLVALUE DUP1 ISZERO PUSH2 0x1AB JUMPI PUSH1 0x0 DUP1 REVERT JUMPDEST POP PUSH2 0x12D PUSH2 0x1BA CALLDATASIZE PUSH1 0x4 PUSH2 0xCD6 JUMP JUMPDEST PUSH2 0xA64 JUMP JUMPDEST CALLVALUE DUP1 ISZERO PUSH2 0x1CB JUMPI PUSH1 0x0 DUP1 REVERT JUMPDEST POP PUSH2 0xA5 PUSH1 0x4 SLOAD DUP2 JUMP JUMPDEST PUSH1 0x2 PUSH1 0x20 DUP2 SWAP1 MSTORE PUSH1 0x0 SWAP2 DUP3 MSTORE PUSH1 0x40 SWAP1 SWAP2 KECCAK256 DUP1 SLOAD PUSH1 0x1 DUP3 ADD SLOAD SWAP3 DUP3 ADD SLOAD PUSH1 0x3 DUP4 ADD SLOAD PUSH1 0x4 DUP5 ADD DUP1 SLOAD SWAP4 SWAP6 PUSH1 0x1 PUSH1 0x1 PUSH1 0xA0 SHL SUB SWAP1 DUP2 AND SWAP6 SWAP4 AND SWAP4 SWAP2 SWAP3 SWAP2 PUSH2 0x219 SWAP1 PUSH2 0xCF8 JUMP JUMPDEST DUP1 PUSH1 0x1F ADD PUSH1 0x20 DUP1 SWAP2 DIV MUL PUSH1 0x20 ADD PUSH1 0x40 MLOAD SWAP1 DUP2 ADD PUSH1 0x40 MSTORE DUP1 SWAP3 SWAP2 SWAP1 DUP2 DUP2 MSTORE PUSH1 0x20 ADD DUP3 DUP1 SLOAD PUSH2 0x245 SWAP1 PUSH2 0xCF8 JUMP JUMPDEST DUP1 ISZERO PUSH2 0x292 JUMPI DUP1 PUSH1 0x1F LT PUSH2 0x267 JUMPI PUSH2 0x100 DUP1 DUP4 SLOAD DIV MUL DUP4 MSTORE SWAP2 PUSH1 0x20 ADD SWAP2 PUSH2 0x292 JUMP JUMPDEST DUP3 ADD SWAP2 SWAP1 PUSH1 0x0 MSTORE PUSH1 0x20 PUSH1 0x0 KECCAK256 SWAP1 JUMPDEST DUP2 SLOAD DUP2 MSTORE SWAP1 PUSH1 0x1 ADD SWAP1 PUSH1 0x20 ADD DUP1 DUP4 GT PUSH2 0x275 JUMPI DUP3 SWAP1 SUB PUSH1 0x1F AND DUP3 ADD SWAP2 JUMPDEST POP POP POP PUSH1 0x5 DUP5 ADD SLOAD PUSH1 0x6 DUP6 ADD SLOAD PUSH1 0x7 SWAP1 SWAP6 ADD SLOAD SWAP4 SWAP5 PUSH1 0xFF DUP1 DUP4 AND SWAP6 PUSH2 0x100 SWAP1 SWAP4 DIV AND SWAP4 POP SWAP2 POP DUP10 JUMP JUMPDEST PUSH1 0x3 PUSH1 0x20 MSTORE DUP2 PUSH1 0x0 MSTORE PUSH1 0x40 PUSH1 0x0 KECCAK256 DUP2 DUP2 SLOAD DUP2 LT PUSH2 0x2D7 JUMPI PUSH1 0x0 DUP1 REVERT JUMPDEST SWAP1 PUSH1 0x0 MSTORE PUSH1 0x20 PUSH1 0x0 KECCAK256 ADD PUSH1 0x0 SWAP2 POP SWAP2 POP POP SLOAD DUP2 JUMP JUMPDEST PUSH2 0x2F4 PUSH2 0xA9F JUMP JUMPDEST PUSH2 0x2FC PUSH2 0xACC JUMP JUMPDEST PUSH1 0x0 DUP2 DUP2 MSTORE PUSH1 0x2 PUSH1 0x20 MSTORE PUSH1 0x40 SWAP1 KECCAK256 PUSH1 0x1 DUP2 ADD SLOAD PUSH1 0x1 PUSH1 0x1 PUSH1 0xA0 SHL SUB AND PUSH2 0x365 JUMPI PUSH1 0x40 MLOAD PUSH3 0x461BCD PUSH1 0xE5 SHL DUP2 MSTORE PUSH1 0x20 PUSH1 0x4 DUP3 ADD MSTORE PUSH1 0x19 PUSH1 0x24 DUP3 ADD MSTORE PUSH25 0x115CD8DC9BDDCE8819195C1BDCDA5D081B9BDD08199BDD5B99 PUSH1 0x3A SHL PUSH1 0x44 DUP3 ADD MSTORE PUSH1 0x64 ADD JUMPDEST PUSH1 0x40 MLOAD DUP1 SWAP2 SUB SWAP1 REVERT JUMPDEST PUSH1 0x5 DUP2 ADD SLOAD PUSH1 0xFF AND ISZERO PUSH2 0x3B5 JUMPI PUSH1 0x40 MLOAD PUSH3 0x461BCD PUSH1 0xE5 SHL DUP2 MSTORE PUSH1 0x20 PUSH1 0x4 DUP3 ADD MSTORE PUSH1 0x18 PUSH1 0x24 DUP3 ADD MSTORE PUSH24 0x115CD8DC9BDDCE88185B1C9958591E481C995B19585CD959 PUSH1 0x42 SHL PUSH1 0x44 DUP3 ADD MSTORE PUSH1 0x64 ADD PUSH2 0x35C JUMP JUMPDEST PUSH1 0x5 DUP2 ADD SLOAD PUSH2 0x100 SWAP1 DIV PUSH1 0xFF AND ISZERO PUSH2 0x40A JUMPI PUSH1 0x40 MLOAD PUSH3 0x461BCD PUSH1 0xE5 SHL DUP2 MSTORE PUSH1 0x20 PUSH1 0x4 DUP3 ADD MSTORE PUSH1 0x18 PUSH1 0x24 DUP3 ADD MSTORE PUSH24 0x115CD8DC9BDDCE88185B1C9958591E481C99599D5B991959 PUSH1 0x42 SHL PUSH1 0x44 DUP3 ADD MSTORE PUSH1 0x64 ADD PUSH2 0x35C JUMP JUMPDEST PUSH1 0x5 DUP2 ADD DUP1 SLOAD PUSH1 0xFF NOT AND PUSH1 0x1 OR SWAP1 SSTORE TIMESTAMP PUSH1 0x7 DUP3 ADD SSTORE PUSH1 0x3 DUP2 ADD SLOAD PUSH1 0x4 DUP1 SLOAD PUSH1 0x0 SWAP1 PUSH2 0x436 SWAP1 DUP5 SWAP1 PUSH2 0xD48 JUMP JUMPDEST SWAP1 SWAP2 SSTORE POP POP PUSH1 0x2 DUP2 ADD SLOAD PUSH1 0x3 DUP3 ADD SLOAD PUSH1 0x40 MLOAD PUSH1 0x0 SWAP3 PUSH1 0x1 PUSH1 0x1 PUSH1 0xA0 SHL SUB AND SWAP2 SWAP1 DUP4 DUP2 DUP2 DUP2 DUP6 DUP8 GAS CALL SWAP3 POP POP POP RETURNDATASIZE DUP1 PUSH1 0x0 DUP2 EQ PUSH2 0x48E JUMPI PUSH1 0x40 MLOAD SWAP2 POP PUSH1 0x1F NOT PUSH1 0x3F RETURNDATASIZE ADD AND DUP3 ADD PUSH1 0x40 MSTORE RETURNDATASIZE DUP3 MSTORE RETURNDATASIZE PUSH1 0x0 PUSH1 0x20 DUP5 ADD RETURNDATACOPY PUSH2 0x493 JUMP JUMPDEST PUSH1 0x60 SWAP2 POP JUMPDEST POP POP SWAP1 POP DUP1 PUSH2 0x4E4 JUMPI PUSH1 0x40 MLOAD PUSH3 0x461BCD PUSH1 0xE5 SHL DUP2 MSTORE PUSH1 0x20 PUSH1 0x4 DUP3 ADD MSTORE PUSH1 0x17 PUSH1 0x24 DUP3 ADD MSTORE PUSH32 0x457363726F773A207472616E73666572206661696C6564000000000000000000 PUSH1 0x44 DUP3 ADD MSTORE PUSH1 0x64 ADD PUSH2 0x35C JUMP JUMPDEST PUSH1 0x2 DUP3 ADD SLOAD PUSH1 0x3 DUP4 ADD SLOAD PUSH1 0x40 DUP1 MLOAD PUSH1 0x1 PUSH1 0x1 PUSH1 0xA0 SHL SUB SWAP1 SWAP4 AND DUP4 MSTORE PUSH1 0x20 DUP4 ADD SWAP2 SWAP1 SWAP2 MSTORE TIMESTAMP SWAP1 DUP3 ADD MSTORE DUP4 SWAP1 PUSH32 0xBAA21FB6000FBB6D014FAC9CD1B0726799E6F352A967157A59F4B2DA8EF32211 SWAP1 PUSH1 0x60 ADD JUMPDEST PUSH1 0x40 MLOAD DUP1 SWAP2 SUB SWAP1 LOG2 POP POP PUSH2 0x547 PUSH1 0x1 DUP1 SSTORE JUMP JUMPDEST POP JUMP JUMPDEST PUSH2 0x552 PUSH2 0xA9F JUMP JUMPDEST PUSH2 0x55C PUSH1 0x0 PUSH2 0xAF6 JUMP JUMPDEST JUMP JUMPDEST PUSH2 0x566 PUSH2 0xA9F JUMP JUMPDEST PUSH2 0x56E PUSH2 0xACC JUMP JUMPDEST PUSH1 0x0 DUP2 DUP2 MSTORE PUSH1 0x2 PUSH1 0x20 MSTORE PUSH1 0x40 SWAP1 KECCAK256 PUSH1 0x1 DUP2 ADD SLOAD PUSH1 0x1 PUSH1 0x1 PUSH1 0xA0 SHL SUB AND PUSH2 0x5D2 JUMPI PUSH1 0x40 MLOAD PUSH3 0x461BCD PUSH1 0xE5 SHL DUP2 MSTORE PUSH1 0x20 PUSH1 0x4 DUP3 ADD MSTORE PUSH1 0x19 PUSH1 0x24 DUP3 ADD MSTORE PUSH25 0x115CD8DC9BDDCE8819195C1BDCDA5D081B9BDD08199BDD5B99 PUSH1 0x3A SHL PUSH1 0x44 DUP3 ADD MSTORE PUSH1 0x64 ADD PUSH2 0x35C JUMP JUMPDEST PUSH1 0x5 DUP2 ADD SLOAD PUSH1 0xFF AND ISZERO PUSH2 0x622 JUMPI PUSH1 0x40 MLOAD PUSH3 0x461BCD PUSH1 0xE5 SHL DUP2 MSTORE PUSH1 0x20 PUSH1 0x4 DUP3 ADD MSTORE PUSH1 0x18 PUSH1 0x24 DUP3 ADD MSTORE PUSH24 0x115CD8DC9BDDCE88185B1C9958591E481C995B19585CD959 PUSH1 0x42 SHL PUSH1 0x44 DUP3 ADD MSTORE PUSH1 0x64 ADD PUSH2 0x35C JUMP JUMPDEST PUSH1 0x5 DUP2 ADD SLOAD PUSH2 0x100 SWAP1 DIV PUSH1 0xFF AND ISZERO PUSH2 0x677 JUMPI PUSH1 0x40 MLOAD PUSH3 0x461BCD PUSH1 0xE5 SHL DUP2 MSTORE PUSH1 0x20 PUSH1 0x4 DUP3 ADD MSTORE PUSH1 0x18 PUSH1 0x24 DUP3 ADD MSTORE PUSH24 0x115CD8DC9BDDCE88185B1C9958591E481C99599D5B991959 PUSH1 0x42 SHL PUSH1 0x44 DUP3 ADD MSTORE PUSH1 0x64 ADD PUSH2 0x35C JUMP JUMPDEST PUSH1 0x5 DUP2 ADD DUP1 SLOAD PUSH2 0xFF00 NOT AND PUSH2 0x100 OR SWAP1 SSTORE PUSH1 0x3 DUP2 ADD SLOAD PUSH1 0x4 DUP1 SLOAD PUSH1 0x0 SWAP1 PUSH2 0x69F SWAP1 DUP5 SWAP1 PUSH2 0xD48 JUMP JUMPDEST SWAP1 SWAP2 SSTORE POP POP PUSH1 0x1 DUP2 ADD SLOAD PUSH1 0x3 DUP3 ADD SLOAD PUSH1 0x40 MLOAD PUSH1 0x0 SWAP3 PUSH1 0x1 PUSH1 0x1 PUSH1 0xA0 SHL SUB AND SWAP2 SWAP1 DUP4 DUP2 DUP2 DUP2 DUP6 DUP8 GAS CALL SWAP3 POP POP POP RETURNDATASIZE DUP1 PUSH1 0x0 DUP2 EQ PUSH2 0x6F7 JUMPI PUSH1 0x40 MLOAD SWAP2 POP PUSH1 0x1F NOT PUSH1 0x3F RETURNDATASIZE ADD AND DUP3 ADD PUSH1 0x40 MSTORE RETURNDATASIZE DUP3 MSTORE RETURNDATASIZE PUSH1 0x0 PUSH1 0x20 DUP5 ADD RETURNDATACOPY PUSH2 0x6FC JUMP JUMPDEST PUSH1 0x60 SWAP2 POP JUMPDEST POP POP SWAP1 POP DUP1 PUSH2 0x745 JUMPI PUSH1 0x40 MLOAD PUSH3 0x461BCD PUSH1 0xE5 SHL DUP2 MSTORE PUSH1 0x20 PUSH1 0x4 DUP3 ADD MSTORE PUSH1 0x15 PUSH1 0x24 DUP3 ADD MSTORE PUSH21 0x115CD8DC9BDDCE881C99599D5B990819985A5B1959 PUSH1 0x5A SHL PUSH1 0x44 DUP3 ADD MSTORE PUSH1 0x64 ADD PUSH2 0x35C JUMP JUMPDEST PUSH1 0x1 DUP3 ADD SLOAD PUSH1 0x3 DUP4 ADD SLOAD PUSH1 0x40 DUP1 MLOAD PUSH1 0x1 PUSH1 0x1 PUSH1 0xA0 SHL SUB SWAP1 SWAP4 AND DUP4 MSTORE PUSH1 0x20 DUP4 ADD SWAP2 SWAP1 SWAP2 MSTORE DUP5 SWAP2 PUSH32 0xF552CA82E113AC3C539C3D617F29FCD19C172A0C75DAD017555C9E109F7FE183 SWAP2 ADD PUSH2 0x534 JUMP JUMPDEST PUSH2 0x79A PUSH2 0xACC JUMP JUMPDEST PUSH1 0x0 CALLVALUE GT PUSH2 0x7EA JUMPI PUSH1 0x40 MLOAD PUSH3 0x461BCD PUSH1 0xE5 SHL DUP2 MSTORE PUSH1 0x20 PUSH1 0x4 DUP3 ADD MSTORE PUSH1 0x1F PUSH1 0x24 DUP3 ADD MSTORE PUSH32 0x457363726F773A206465706F73697420616D6F756E7420726571756972656400 PUSH1 0x44 DUP3 ADD MSTORE PUSH1 0x64 ADD PUSH2 0x35C JUMP JUMPDEST PUSH1 0x0 DUP6 DUP2 MSTORE PUSH1 0x2 PUSH1 0x20 MSTORE PUSH1 0x40 SWAP1 KECCAK256 PUSH1 0x1 ADD SLOAD PUSH1 0x1 PUSH1 0x1 PUSH1 0xA0 SHL SUB AND ISZERO PUSH2 0x852 JUMPI PUSH1 0x40 MLOAD PUSH3 0x461BCD PUSH1 0xE5 SHL DUP2 MSTORE PUSH1 0x20 PUSH1 0x4 DUP3 ADD DUP2 SWAP1 MSTORE PUSH1 0x24 DUP3 ADD MSTORE PUSH32 0x457363726F773A206465706F736974496420616C726561647920657869737473 PUSH1 0x44 DUP3 ADD MSTORE PUSH1 0x64 ADD PUSH2 0x35C JUMP JUMPDEST PUSH1 0x1 PUSH1 0x1 PUSH1 0xA0 SHL SUB DUP4 AND PUSH2 0x8A0 JUMPI PUSH1 0x40 MLOAD PUSH3 0x461BCD PUSH1 0xE5 SHL DUP2 MSTORE PUSH1 0x20 PUSH1 0x4 DUP3 ADD MSTORE PUSH1 0x15 PUSH1 0x24 DUP3 ADD MSTORE PUSH21 0x457363726F773A20696E76616C6964207061796565 PUSH1 0x58 SHL PUSH1 0x44 DUP3 ADD MSTORE PUSH1 0x64 ADD PUSH2 0x35C JUMP JUMPDEST PUSH1 0x40 MLOAD DUP1 PUSH2 0x120 ADD PUSH1 0x40 MSTORE DUP1 DUP6 DUP2 MSTORE PUSH1 0x20 ADD CALLER PUSH1 0x1 PUSH1 0x1 PUSH1 0xA0 SHL SUB AND DUP2 MSTORE PUSH1 0x20 ADD DUP5 PUSH1 0x1 PUSH1 0x1 PUSH1 0xA0 SHL SUB AND DUP2 MSTORE PUSH1 0x20 ADD CALLVALUE DUP2 MSTORE PUSH1 0x20 ADD DUP4 DUP4 DUP1 DUP1 PUSH1 0x1F ADD PUSH1 0x20 DUP1 SWAP2 DIV MUL PUSH1 0x20 ADD PUSH1 0x40 MLOAD SWAP1 DUP2 ADD PUSH1 0x40 MSTORE DUP1 SWAP4 SWAP3 SWAP2 SWAP1 DUP2 DUP2 MSTORE PUSH1 0x20 ADD DUP4 DUP4 DUP1 DUP3 DUP5 CALLDATACOPY PUSH1 0x0 SWAP3 ADD DUP3 SWAP1 MSTORE POP SWAP4 DUP6 MSTORE POP POP POP PUSH1 0x20 DUP1 DUP4 ADD DUP3 SWAP1 MSTORE PUSH1 0x40 DUP1 DUP5 ADD DUP4 SWAP1 MSTORE TIMESTAMP PUSH1 0x60 DUP1 DUP7 ADD SWAP2 SWAP1 SWAP2 MSTORE PUSH1 0x80 SWAP5 DUP6 ADD DUP5 SWAP1 MSTORE DUP11 DUP5 MSTORE PUSH1 0x2 DUP1 DUP5 MSTORE SWAP4 DUP3 SWAP1 KECCAK256 DUP7 MLOAD DUP2 SSTORE SWAP3 DUP7 ADD MLOAD PUSH1 0x1 DUP5 ADD DUP1 SLOAD PUSH1 0x1 PUSH1 0x1 PUSH1 0xA0 SHL SUB NOT SWAP1 DUP2 AND PUSH1 0x1 PUSH1 0x1 PUSH1 0xA0 SHL SUB SWAP4 DUP5 AND OR SWAP1 SWAP2 SSTORE SWAP3 DUP8 ADD MLOAD SWAP5 DUP5 ADD DUP1 SLOAD SWAP1 SWAP4 AND SWAP5 AND SWAP4 SWAP1 SWAP4 OR SWAP1 SSTORE SWAP1 DUP4 ADD MLOAD PUSH1 0x3 DUP3 ADD SSTORE SWAP1 DUP3 ADD MLOAD PUSH1 0x4 DUP3 ADD SWAP1 PUSH2 0x995 SWAP1 DUP3 PUSH2 0xDC8 JUMP JUMPDEST POP PUSH1 0xA0 DUP3 ADD MLOAD PUSH1 0x5 DUP3 ADD DUP1 SLOAD PUSH1 0xC0 DUP6 ADD MLOAD PUSH2 0xFFFF NOT SWAP1 SWAP2 AND SWAP3 ISZERO ISZERO PUSH2 0xFF00 NOT AND SWAP3 SWAP1 SWAP3 OR PUSH2 0x100 SWAP3 ISZERO ISZERO DUP4 MUL OR SWAP1 SSTORE PUSH1 0xE0 DUP4 ADD MLOAD PUSH1 0x6 DUP4 ADD SSTORE SWAP1 SWAP2 ADD MLOAD PUSH1 0x7 SWAP1 SWAP2 ADD SSTORE PUSH1 0x0 DUP5 DUP2 MSTORE PUSH1 0x3 PUSH1 0x20 SWAP1 DUP2 MSTORE PUSH1 0x40 DUP3 KECCAK256 DUP1 SLOAD PUSH1 0x1 DUP2 ADD DUP3 SSTORE SWAP1 DUP4 MSTORE SWAP1 DUP3 KECCAK256 ADD DUP7 SWAP1 SSTORE PUSH1 0x4 DUP1 SLOAD CALLVALUE SWAP3 SWAP1 PUSH2 0xA0C SWAP1 DUP5 SWAP1 PUSH2 0xE88 JUMP JUMPDEST SWAP3 POP POP DUP2 SWAP1 SSTORE POP DUP4 DUP6 PUSH32 0x88B154D813CF2279B5BCDB91B9790011BD3F2B47A6676CFBE59A9628FA3FBC6E CALLER DUP7 CALLVALUE DUP8 DUP8 PUSH1 0x40 MLOAD PUSH2 0xA4C SWAP6 SWAP5 SWAP4 SWAP3 SWAP2 SWAP1 PUSH2 0xE9B JUMP JUMPDEST PUSH1 0x40 MLOAD DUP1 SWAP2 SUB SWAP1 LOG3 PUSH2 0xA5D PUSH1 0x1 DUP1 SSTORE JUMP JUMPDEST POP POP POP POP POP JUMP JUMPDEST PUSH2 0xA6C PUSH2 0xA9F JUMP JUMPDEST PUSH1 0x1 PUSH1 0x1 PUSH1 0xA0 SHL SUB DUP2 AND PUSH2 0xA96 JUMPI PUSH1 0x40 MLOAD PUSH4 0x1E4FBDF7 PUSH1 0xE0 SHL DUP2 MSTORE PUSH1 0x0 PUSH1 0x4 DUP3 ADD MSTORE PUSH1 0x24 ADD PUSH2 0x35C JUMP JUMPDEST PUSH2 0x547 DUP2 PUSH2 0xAF6 JUMP JUMPDEST PUSH1 0x0 SLOAD PUSH1 0x1 PUSH1 0x1 PUSH1 0xA0 SHL SUB AND CALLER EQ PUSH2 0x55C JUMPI PUSH1 0x40 MLOAD PUSH4 0x118CDAA7 PUSH1 0xE0 SHL DUP2 MSTORE CALLER PUSH1 0x4 DUP3 ADD MSTORE PUSH1 0x24 ADD PUSH2 0x35C JUMP JUMPDEST PUSH1 0x2 PUSH1 0x1 SLOAD SUB PUSH2 0xAEF JUMPI PUSH1 0x40 MLOAD PUSH4 0x3EE5AEB5 PUSH1 0xE0 SHL DUP2 MSTORE PUSH1 0x4 ADD PUSH1 0x40 MLOAD DUP1 SWAP2 SUB SWAP1 REVERT JUMPDEST PUSH1 0x2 PUSH1 0x1 SSTORE JUMP JUMPDEST PUSH1 0x0 DUP1 SLOAD PUSH1 0x1 PUSH1 0x1 PUSH1 0xA0 SHL SUB DUP4 DUP2 AND PUSH1 0x1 PUSH1 0x1 PUSH1 0xA0 SHL SUB NOT DUP4 AND DUP2 OR DUP5 SSTORE PUSH1 0x40 MLOAD SWAP2 SWAP1 SWAP3 AND SWAP3 DUP4 SWAP2 PUSH32 0x8BE0079C531659141344CD1FD0A4F28419497F9722A3DAAFE3B4186F6B6457E0 SWAP2 SWAP1 LOG3 POP POP JUMP JUMPDEST PUSH1 0x0 PUSH1 0x20 DUP3 DUP5 SUB SLT ISZERO PUSH2 0xB58 JUMPI PUSH1 0x0 DUP1 REVERT JUMPDEST POP CALLDATALOAD SWAP2 SWAP1 POP JUMP JUMPDEST PUSH1 0x0 PUSH2 0x120 DUP12 DUP4 MSTORE PUSH1 0x20 PUSH1 0x1 DUP1 PUSH1 0xA0 SHL SUB DUP1 DUP14 AND PUSH1 0x20 DUP7 ADD MSTORE DUP1 DUP13 AND PUSH1 0x40 DUP7 ADD MSTORE POP DUP10 PUSH1 0x60 DUP6 ADD MSTORE DUP2 PUSH1 0x80 DUP6 ADD MSTORE DUP9 MLOAD DUP1 DUP4 DUP7 ADD MSTORE PUSH1 0x0 SWAP3 POP JUMPDEST DUP1 DUP4 LT ISZERO PUSH2 0xBB8 JUMPI DUP10 DUP4 ADD DUP3 ADD MLOAD DUP6 DUP5 ADD PUSH2 0x140 ADD MSTORE SWAP2 DUP2 ADD SWAP2 PUSH2 0xB99 JUMP JUMPDEST PUSH2 0x140 SWAP3 POP PUSH1 0x0 DUP4 DUP3 DUP8 ADD ADD MSTORE DUP3 PUSH1 0x1F NOT PUSH1 0x1F DUP4 ADD AND DUP7 ADD ADD SWAP4 POP POP POP POP PUSH2 0xBE4 PUSH1 0xA0 DUP4 ADD DUP8 ISZERO ISZERO SWAP1 MSTORE JUMP JUMPDEST DUP5 ISZERO ISZERO PUSH1 0xC0 DUP4 ADD MSTORE PUSH1 0xE0 DUP3 ADD SWAP4 SWAP1 SWAP4 MSTORE PUSH2 0x100 ADD MSTORE SWAP8 SWAP7 POP POP POP POP POP POP POP JUMP JUMPDEST PUSH1 0x0 DUP1 PUSH1 0x40 DUP4 DUP6 SUB SLT ISZERO PUSH2 0xC17 JUMPI PUSH1 0x0 DUP1 REVERT JUMPDEST POP POP DUP1 CALLDATALOAD SWAP3 PUSH1 0x20 SWAP1 SWAP2 ADD CALLDATALOAD SWAP2 POP JUMP JUMPDEST DUP1 CALLDATALOAD PUSH1 0x1 PUSH1 0x1 PUSH1 0xA0 SHL SUB DUP2 AND DUP2 EQ PUSH2 0xC3D JUMPI PUSH1 0x0 DUP1 REVERT JUMPDEST SWAP2 SWAP1 POP JUMP JUMPDEST PUSH1 0x0 DUP1 PUSH1 0x0 DUP1 PUSH1 0x0 PUSH1 0x80 DUP7 DUP9 SUB SLT ISZERO PUSH2 0xC5A JUMPI PUSH1 0x0 DUP1 REVERT JUMPDEST DUP6 CALLDATALOAD SWAP5 POP PUSH1 0x20 DUP7 ADD CALLDATALOAD SWAP4 POP PUSH2 0xC71 PUSH1 0x40 DUP8 ADD PUSH2 0xC26 JUMP JUMPDEST SWAP3 POP PUSH1 0x60 DUP7 ADD CALLDATALOAD PUSH8 0xFFFFFFFFFFFFFFFF DUP1 DUP3 GT ISZERO PUSH2 0xC8E JUMPI PUSH1 0x0 DUP1 REVERT JUMPDEST DUP2 DUP9 ADD SWAP2 POP DUP9 PUSH1 0x1F DUP4 ADD SLT PUSH2 0xCA2 JUMPI PUSH1 0x0 DUP1 REVERT JUMPDEST DUP2 CALLDATALOAD DUP2 DUP2 GT ISZERO PUSH2 0xCB1 JUMPI PUSH1 0x0 DUP1 REVERT JUMPDEST DUP10 PUSH1 0x20 DUP3 DUP6 ADD ADD GT ISZERO PUSH2 0xCC3 JUMPI PUSH1 0x0 DUP1 REVERT JUMPDEST SWAP7 SWAP10 SWAP6 SWAP9 POP SWAP4 SWAP7 POP PUSH1 0x20 ADD SWAP5 SWAP4 SWAP3 POP POP POP JUMP JUMPDEST PUSH1 0x0 PUSH1 0x20 DUP3 DUP5 SUB SLT ISZERO PUSH2 0xCE8 JUMPI PUSH1 0x0 DUP1 REVERT JUMPDEST PUSH2 0xCF1 DUP3 PUSH2 0xC26 JUMP JUMPDEST SWAP4 SWAP3 POP POP POP JUMP JUMPDEST PUSH1 0x1 DUP2 DUP2 SHR SWAP1 DUP3 AND DUP1 PUSH2 0xD0C JUMPI PUSH1 0x7F DUP3 AND SWAP2 POP JUMPDEST PUSH1 0x20 DUP3 LT DUP2 SUB PUSH2 0xD2C JUMPI PUSH4 0x4E487B71 PUSH1 0xE0 SHL PUSH1 0x0 MSTORE PUSH1 0x22 PUSH1 0x4 MSTORE PUSH1 0x24 PUSH1 0x0 REVERT JUMPDEST POP SWAP2 SWAP1 POP JUMP JUMPDEST PUSH4 0x4E487B71 PUSH1 0xE0 SHL PUSH1 0x0 MSTORE PUSH1 0x11 PUSH1 0x4 MSTORE PUSH1 0x24 PUSH1 0x0 REVERT JUMPDEST DUP2 DUP2 SUB DUP2 DUP2 GT ISZERO PUSH2 0xD5B JUMPI PUSH2 0xD5B PUSH2 0xD32 JUMP JUMPDEST SWAP3 SWAP2 POP POP JUMP JUMPDEST PUSH4 0x4E487B71 PUSH1 0xE0 SHL PUSH1 0x0 MSTORE PUSH1 0x41 PUSH1 0x4 MSTORE PUSH1 0x24 PUSH1 0x0 REVERT JUMPDEST PUSH1 0x1F DUP3 GT ISZERO PUSH2 0xDC3 JUMPI PUSH1 0x0 DUP2 PUSH1 0x0 MSTORE PUSH1 0x20 PUSH1 0x0 KECCAK256 PUSH1 0x1F DUP6 ADD PUSH1 0x5 SHR DUP2 ADD PUSH1 0x20 DUP7 LT ISZERO PUSH2 0xDA0 JUMPI POP DUP1 JUMPDEST PUSH1 0x1F DUP6 ADD PUSH1 0x5 SHR DUP3 ADD SWAP2 POP JUMPDEST DUP2 DUP2 LT ISZERO PUSH2 0xDBF JUMPI DUP3 DUP2 SSTORE PUSH1 0x1 ADD PUSH2 0xDAC JUMP JUMPDEST POP POP POP JUMPDEST POP POP POP JUMP JUMPDEST DUP2 MLOAD PUSH8 0xFFFFFFFFFFFFFFFF DUP2 GT ISZERO PUSH2 0xDE2 JUMPI PUSH2 0xDE2 PUSH2 0xD61 JUMP JUMPDEST PUSH2 0xDF6 DUP2 PUSH2 0xDF0 DUP5 SLOAD PUSH2 0xCF8 JUMP JUMPDEST DUP5 PUSH2 0xD77 JUMP JUMPDEST PUSH1 0x20 DUP1 PUSH1 0x1F DUP4 GT PUSH1 0x1 DUP2 EQ PUSH2 0xE2B JUMPI PUSH1 0x0 DUP5 ISZERO PUSH2 0xE13 JUMPI POP DUP6 DUP4 ADD MLOAD JUMPDEST PUSH1 0x0 NOT PUSH1 0x3 DUP7 SWAP1 SHL SHR NOT AND PUSH1 0x1 DUP6 SWAP1 SHL OR DUP6 SSTORE PUSH2 0xDBF JUMP JUMPDEST PUSH1 0x0 DUP6 DUP2 MSTORE PUSH1 0x20 DUP2 KECCAK256 PUSH1 0x1F NOT DUP7 AND SWAP2 JUMPDEST DUP3 DUP2 LT ISZERO PUSH2 0xE5A JUMPI DUP9 DUP7 ADD MLOAD DUP3 SSTORE SWAP5 DUP5 ADD SWAP5 PUSH1 0x1 SWAP1 SWAP2 ADD SWAP1 DUP5 ADD PUSH2 0xE3B JUMP JUMPDEST POP DUP6 DUP3 LT ISZERO PUSH2 0xE78 JUMPI DUP8 DUP6 ADD MLOAD PUSH1 0x0 NOT PUSH1 0x3 DUP9 SWAP1 SHL PUSH1 0xF8 AND SHR NOT AND DUP2 SSTORE JUMPDEST POP POP POP POP POP PUSH1 0x1 SWAP1 DUP2 SHL ADD SWAP1 SSTORE POP JUMP JUMPDEST DUP1 DUP3 ADD DUP1 DUP3 GT ISZERO PUSH2 0xD5B JUMPI PUSH2 0xD5B PUSH2 0xD32 JUMP JUMPDEST PUSH1 0x1 PUSH1 0x1 PUSH1 0xA0 SHL SUB DUP7 DUP2 AND DUP3 MSTORE DUP6 AND PUSH1 0x20 DUP3 ADD MSTORE PUSH1 0x40 DUP2 ADD DUP5 SWAP1 MSTORE PUSH1 0x80 PUSH1 0x60 DUP3 ADD DUP2 SWAP1 MSTORE DUP2 ADD DUP3 SWAP1 MSTORE PUSH1 0x0 DUP3 DUP5 PUSH1 0xA0 DUP5 ADD CALLDATACOPY PUSH1 0x0 PUSH1 0xA0 DUP5 DUP5 ADD ADD MSTORE PUSH1 0xA0 PUSH1 0x1F NOT PUSH1 0x1F DUP6 ADD AND DUP4 ADD ADD SWAP1 POP SWAP7 SWAP6 POP POP POP POP POP POP JUMP INVALID LOG2 PUSH5 0x6970667358 0x22 SLT KECCAK256 BLOCKHASH 0xB2 MSIZE LOG3 PUSH27 0x160EF902376D5C5111F3E6A4D6CC530B3208F770E44B72B178A22 PUSH5 0x736F6C6343 STOP ADDMOD XOR STOP CALLER "},"methodIdentifiers":{"caseDeposits(bytes32,uint256)":"637fd0f7","deposit(bytes32,bytes32,address,string)":"ca0c3ad5","deposits(bytes32)":"3d4dff7b","getBalance()":"12065fe0","owner()":"8da5cb5b","refund(bytes32)":"7249fbb6","release(bytes32)":"67d42a8b","renounceOwnership()":"715018a6","totalHeld()":"f43cc773","transferOwnership(address)":"f2fde38b"}}}}}