{"contracts/DeadManSwitch.sol":{"DeadManSwitch":{"abi":[{"inputs":[{"internalType":"address","name":"initialOwner","type":"address"}],"stateMutability":"nonpayable","type":"constructor"},{"inputs":[{"internalType":"address","name":"owner","type":"address"}],"name":"OwnableInvalidOwner","type":"error"},{"inputs":[{"internalType":"address","name":"account","type":"address"}],"name":"OwnableUnauthorizedAccount","type":"error"},{"anonymous":false,"inputs":[{"indexed":true,"internalType":"bytes32","name":"caseId","type":"bytes32"},{"indexed":false,"internalType":"uint256","name":"inactiveDays","type":"uint256"},{"indexed":false,"internalType":"uint256","name":"timestamp","type":"uint256"}],"name":"CaseFrozen","type":"event"},{"anonymous":false,"inputs":[{"indexed":true,"internalType":"bytes32","name":"caseId","type":"bytes32"},{"indexed":false,"internalType":"address","name":"userWallet","type":"address"},{"indexed":false,"internalType":"uint256","name":"timestamp","type":"uint256"}],"name":"CaseRegistered","type":"event"},{"anonymous":false,"inputs":[{"indexed":true,"internalType":"bytes32","name":"caseId","type":"bytes32"},{"indexed":true,"internalType":"address","name":"user","type":"address"},{"indexed":false,"internalType":"uint256","name":"timestamp","type":"uint256"}],"name":"CaseUnfrozen","type":"event"},{"anonymous":false,"inputs":[{"indexed":true,"internalType":"bytes32","name":"caseId","type":"bytes32"},{"indexed":true,"internalType":"address","name":"user","type":"address"},{"indexed":false,"internalType":"uint256","name":"timestamp","type":"uint256"}],"name":"CheckedIn","type":"event"},{"anonymous":false,"inputs":[{"indexed":true,"internalType":"address","name":"previousOwner","type":"address"},{"indexed":true,"internalType":"address","name":"newOwner","type":"address"}],"name":"OwnershipTransferred","type":"event"},{"inputs":[],"name":"CHECKIN_WARNING","outputs":[{"internalType":"uint256","name":"","type":"uint256"}],"stateMutability":"view","type":"function"},{"inputs":[],"name":"FREEZE_THRESHOLD","outputs":[{"internalType":"uint256","name":"","type":"uint256"}],"stateMutability":"view","type":"function"},{"inputs":[],"name":"PAUSE_THRESHOLD","outputs":[{"internalType":"uint256","name":"","type":"uint256"}],"stateMutability":"view","type":"function"},{"inputs":[{"internalType":"bytes32","name":"","type":"bytes32"}],"name":"cases","outputs":[{"internalType":"bytes32","name":"caseId","type":"bytes32"},{"internalType":"address","name":"userWallet","type":"address"},{"internalType":"uint256","name":"lastCheckIn","type":"uint256"},{"internalType":"bool","name":"isFrozen","type":"bool"},{"internalType":"uint256","name":"frozenAt","type":"uint256"}],"stateMutability":"view","type":"function"},{"inputs":[{"internalType":"bytes32","name":"caseId","type":"bytes32"}],"name":"checkIn","outputs":[],"stateMutability":"nonpayable","type":"function"},{"inputs":[{"internalType":"bytes32","name":"caseId","type":"bytes32"}],"name":"freezeCase","outputs":[],"stateMutability":"nonpayable","type":"function"},{"inputs":[{"internalType":"bytes32","name":"caseId","type":"bytes32"}],"name":"getCaseStatus","outputs":[{"internalType":"bool","name":"isFrozen","type":"bool"},{"internalType":"uint256","name":"daysSinceCheckIn","type":"uint256"},{"internalType":"string","name":"phase","type":"string"}],"stateMutability":"view","type":"function"},{"inputs":[{"internalType":"bytes32","name":"caseId","type":"bytes32"}],"name":"getDaysSinceCheckIn","outputs":[{"internalType":"uint256","name":"","type":"uint256"}],"stateMutability":"view","type":"function"},{"inputs":[{"internalType":"bytes32","name":"caseId","type":"bytes32"}],"name":"isCaseFrozen","outputs":[{"internalType":"bool","name":"","type":"bool"}],"stateMutability":"view","type":"function"},{"inputs":[],"name":"owner","outputs":[{"internalType":"address","name":"","type":"address"}],"stateMutability":"view","type":"function"},{"inputs":[{"internalType":"bytes32","name":"caseId","type":"bytes32"},{"internalType":"address","name":"userWallet","type":"address"}],"name":"registerCase","outputs":[],"stateMutability":"nonpayable","type":"function"},{"inputs":[],"name":"renounceOwnership","outputs":[],"stateMutability":"nonpayable","type":"function"},{"inputs":[{"internalType":"address","name":"newOwner","type":"address"}],"name":"transferOwnership","outputs":[],"stateMutability":"nonpayable","type":"function"}],"evm":{"bytecode":{"linkReferences":{},"object":"608060405234801561001057600080fd5b50604051610b83380380610b8383398101604081905261002f916100be565b806001600160a01b03811661005e57604051631e4fbdf760e01b81526000600482015260240160405180910390fd5b6100678161006e565b50506100ee565b600080546001600160a01b038381166001600160a01b0319831681178455604051919092169283917f8be0079c531659141344cd1fd0a4f28419497f9722a3daafe3b4186f6b6457e09190a35050565b6000602082840312156100d057600080fd5b81516001600160a01b03811681146100e757600080fd5b9392505050565b610a86806100fd6000396000f3fe608060405234801561001057600080fd5b50600436106100cf5760003560e01c80638da5cb5b1161008c578063db63d47211610066578063db63d472146101fd578063e15ec55714610233578063e40a34781461023d578063f2fde38b1461025057600080fd5b80638da5cb5b146101c5578063a2237ce5146101e0578063b6bcbb49146101ea57600080fd5b8063258198af146100d4578063383b6e7b146100ff5780634662d1dd1461011457806348ea1c23146101275780636626dda0146101a5578063715018a6146101bd575b600080fd5b6100e76100e236600461092a565b610263565b6040516100f693929190610943565b60405180910390f35b61011261010d3660046109bf565b6103d5565b005b61011261012236600461092a565b61050d565b61017361013536600461092a565b6001602081905260009182526040909120805491810154600282015460038301546004909301546001600160a01b0390921692909160ff9091169085565b604080519586526001600160a01b0390941660208601529284019190915215156060830152608082015260a0016100f6565b6101af623b538081565b6040519081526020016100f6565b610112610671565b6000546040516001600160a01b0390911681526020016100f6565b6101af62093a8081565b6101af6101f836600461092a565b610685565b61022361020b36600461092a565b60009081526001602052604090206003015460ff1690565b60405190151581526020016100f6565b6101af621baf8081565b61011261024b36600461092a565b6106dd565b61011261025e3660046109eb565b61086f565b600081815260016020819052604082209081015482916060916001600160a01b03166102bc57505060408051808201909152600e81526d1b9bdd17dc9959da5cdd195c995960921b6020820152600092508291506103ce565b6000620151808260020154426102d29190610a0d565b6102dc9190610a2e565b600383015490915060609060ff1680610304575061030062015180623b5380610a2e565b8210155b1561032c5750604080518082019091526006815265333937bd32b760d11b60208201526103be565b61033c62015180621baf80610a2e565b821061036557506040805180820190915260068152651c185d5cd95960d21b60208201526103be565b6103756201518062093a80610a2e565b821061039f57506040805180820190915260078152667761726e696e6760c81b60208201526103be565b5060408051808201909152600681526561637469766560d01b60208201525b60039092015460ff169450925090505b9193909250565b6103dd6108ad565b600082815260016020819052604090912001546001600160a01b03161561044b5760405162461bcd60e51b815260206004820152601c60248201527f444d533a206361736520616c726561647920726567697374657265640000000060448201526064015b60405180910390fd5b6040805160a0810182528381526001600160a01b03838116602080840182815242858701818152600060608801818152608089018281528c83526001808852928b902099518a55945191890180546001600160a01b0319169290981691909117909655516002870155935160038601805460ff19169115159190911790555160049094019390935583519081529182015283917fb92fb46aa31b4f88dcbd1367813392a58129453ea2f4659441e4e37c838e95c6910160405180910390a25050565b6000818152600160208190526040909120908101546001600160a01b03166105725760405162461bcd60e51b8152602060048201526018602482015277111354ce8818d85cd9481b9bdd081c9959da5cdd195c995960421b6044820152606401610442565b60018101546001600160a01b031633148061059757506000546001600160a01b031633145b6105d95760405162461bcd60e51b8152602060048201526013602482015272111354ce881b9bdd08185d5d1a1bdc9a5e9959606a1b6044820152606401610442565b60038101805442600284015560ff1981169091556000600483015560ff16801561063557604051428152339084907f3b0831a5ad6b304ae714ffa8e8dde1f04f6308cfa2d56e9fca95c0db83b6aa319060200160405180910390a35b604051428152339084907f259d65dad1a77e11a039058d61231aef39729edfd89ebaf1221bdc88dc0d80029060200160405180910390a3505050565b6106796108ad565b61068360006108da565b565b6000818152600160208190526040822001546001600160a01b03166106ac57506000919050565b60008281526001602052604090206002015462015180906106cd9042610a0d565b6106d79190610a2e565b92915050565b6106e56108ad565b6000818152600160208190526040909120908101546001600160a01b031661074a5760405162461bcd60e51b8152602060048201526018602482015277111354ce8818d85cd9481b9bdd081c9959da5cdd195c995960421b6044820152606401610442565b600381015460ff16156107955760405162461bcd60e51b81526020600482015260136024820152722226a99d1030b63932b0b23c90333937bd32b760691b6044820152606401610442565b6000620151808260020154426107ab9190610a0d565b6107b59190610a2e565b9050602d8110156108125760405162461bcd60e51b815260206004820152602160248201527f444d533a20343520646179207468726573686f6c64206e6f74207265616368656044820152601960fa1b6064820152608401610442565b60038201805460ff19166001179055426004830181905560405184917f69984616ca9d825db966f82bce73e68df11df91e363ca68a8390fd7b3667c56f9161086291858252602082015260400190565b60405180910390a2505050565b6108776108ad565b6001600160a01b0381166108a157604051631e4fbdf760e01b815260006004820152602401610442565b6108aa816108da565b50565b6000546001600160a01b031633146106835760405163118cdaa760e01b8152336004820152602401610442565b600080546001600160a01b038381166001600160a01b0319831681178455604051919092169283917f8be0079c531659141344cd1fd0a4f28419497f9722a3daafe3b4186f6b6457e09190a35050565b60006020828403121561093c57600080fd5b5035919050565b83151581526000602084602084015260606040840152835180606085015260005b8181101561098057858101830151858201608001528201610964565b506000608082860101526080601f19601f83011685010192505050949350505050565b80356001600160a01b03811681146109ba57600080fd5b919050565b600080604083850312156109d257600080fd5b823591506109e2602084016109a3565b90509250929050565b6000602082840312156109fd57600080fd5b610a06826109a3565b9392505050565b818103818111156106d757634e487b7160e01b600052601160045260246000fd5b600082610a4b57634e487b7160e01b600052601260045260246000fd5b50049056fea26469706673582212208afd7fbb8bd3334e66796c03d55582f313ecbe84102652d75309d527e1d3192d64736f6c63430008180033","opcodes":"PUSH1 0x80 PUSH1 0x40 MSTORE CALLVALUE DUP1 ISZERO PUSH2 0x10 JUMPI PUSH1 0x0 DUP1 REVERT JUMPDEST POP PUSH1 0x40 MLOAD PUSH2 0xB83 CODESIZE SUB DUP1 PUSH2 0xB83 DUP4 CODECOPY DUP2 ADD PUSH1 0x40 DUP2 SWAP1 MSTORE PUSH2 0x2F SWAP2 PUSH2 0xBE JUMP JUMPDEST DUP1 PUSH1 0x1 PUSH1 0x1 PUSH1 0xA0 SHL SUB DUP2 AND PUSH2 0x5E JUMPI PUSH1 0x40 MLOAD PUSH4 0x1E4FBDF7 PUSH1 0xE0 SHL DUP2 MSTORE PUSH1 0x0 PUSH1 0x4 DUP3 ADD MSTORE PUSH1 0x24 ADD PUSH1 0x40 MLOAD DUP1 SWAP2 SUB SWAP1 REVERT JUMPDEST PUSH2 0x67 DUP2 PUSH2 0x6E JUMP JUMPDEST POP POP PUSH2 0xEE JUMP JUMPDEST PUSH1 0x0 DUP1 SLOAD PUSH1 0x1 PUSH1 0x1 PUSH1 0xA0 SHL SUB DUP4 DUP2 AND PUSH1 0x1 PUSH1 0x1 PUSH1 0xA0 SHL SUB NOT DUP4 AND DUP2 OR DUP5 SSTORE PUSH1 0x40 MLOAD SWAP2 SWAP1 SWAP3 AND SWAP3 DUP4 SWAP2 PUSH32 0x8BE0079C531659141344CD1FD0A4F28419497F9722A3DAAFE3B4186F6B6457E0 SWAP2 SWAP1 LOG3 POP POP JUMP JUMPDEST PUSH1 0x0 PUSH1 0x20 DUP3 DUP5 SUB SLT ISZERO PUSH2 0xD0 JUMPI PUSH1 0x0 DUP1 REVERT JUMPDEST DUP2 MLOAD PUSH1 0x1 PUSH1 0x1 PUSH1 0xA0 SHL SUB DUP2 AND DUP2 EQ PUSH2 0xE7 JUMPI PUSH1 0x0 DUP1 REVERT JUMPDEST SWAP4 SWAP3 POP POP POP JUMP JUMPDEST PUSH2 0xA86 DUP1 PUSH2 0xFD PUSH1 0x0 CODECOPY PUSH1 0x0 RETURN INVALID PUSH1 0x80 PUSH1 0x40 MSTORE CALLVALUE DUP1 ISZERO PUSH2 0x10 JUMPI PUSH1 0x0 DUP1 REVERT JUMPDEST POP PUSH1 0x4 CALLDATASIZE LT PUSH2 0xCF JUMPI PUSH1 0x0 CALLDATALOAD PUSH1 0xE0 SHR DUP1 PUSH4 0x8DA5CB5B GT PUSH2 0x8C JUMPI DUP1 PUSH4 0xDB63D472 GT PUSH2 0x66 JUMPI DUP1 PUSH4 0xDB63D472 EQ PUSH2 0x1FD JUMPI DUP1 PUSH4 0xE15EC557 EQ PUSH2 0x233 JUMPI DUP1 PUSH4 0xE40A3478 EQ PUSH2 0x23D JUMPI DUP1 PUSH4 0xF2FDE38B EQ PUSH2 0x250 JUMPI PUSH1 0x0 DUP1 REVERT JUMPDEST DUP1 PUSH4 0x8DA5CB5B EQ PUSH2 0x1C5 JUMPI DUP1 PUSH4 0xA2237CE5 EQ PUSH2 0x1E0 JUMPI DUP1 PUSH4 0xB6BCBB49 EQ PUSH2 0x1EA JUMPI PUSH1 0x0 DUP1 REVERT JUMPDEST DUP1 PUSH4 0x258198AF EQ PUSH2 0xD4 JUMPI DUP1 PUSH4 0x383B6E7B EQ PUSH2 0xFF JUMPI DUP1 PUSH4 0x4662D1DD EQ PUSH2 0x114 JUMPI DUP1 PUSH4 0x48EA1C23 EQ PUSH2 0x127 JUMPI DUP1 PUSH4 0x6626DDA0 EQ PUSH2 0x1A5 JUMPI DUP1 PUSH4 0x715018A6 EQ PUSH2 0x1BD JUMPI JUMPDEST PUSH1 0x0 DUP1 REVERT JUMPDEST PUSH2 0xE7 PUSH2 0xE2 CALLDATASIZE PUSH1 0x4 PUSH2 0x92A JUMP JUMPDEST PUSH2 0x263 JUMP JUMPDEST PUSH1 0x40 MLOAD PUSH2 0xF6 SWAP4 SWAP3 SWAP2 SWAP1 PUSH2 0x943 JUMP JUMPDEST PUSH1 0x40 MLOAD DUP1 SWAP2 SUB SWAP1 RETURN JUMPDEST PUSH2 0x112 PUSH2 0x10D CALLDATASIZE PUSH1 0x4 PUSH2 0x9BF JUMP JUMPDEST PUSH2 0x3D5 JUMP JUMPDEST STOP JUMPDEST PUSH2 0x112 PUSH2 0x122 CALLDATASIZE PUSH1 0x4 PUSH2 0x92A JUMP JUMPDEST PUSH2 0x50D JUMP JUMPDEST PUSH2 0x173 PUSH2 0x135 CALLDATASIZE PUSH1 0x4 PUSH2 0x92A JUMP JUMPDEST PUSH1 0x1 PUSH1 0x20 DUP2 SWAP1 MSTORE PUSH1 0x0 SWAP2 DUP3 MSTORE PUSH1 0x40 SWAP1 SWAP2 KECCAK256 DUP1 SLOAD SWAP2 DUP2 ADD SLOAD PUSH1 0x2 DUP3 ADD SLOAD PUSH1 0x3 DUP4 ADD SLOAD PUSH1 0x4 SWAP1 SWAP4 ADD SLOAD PUSH1 0x1 PUSH1 0x1 PUSH1 0xA0 SHL SUB SWAP1 SWAP3 AND SWAP3 SWAP1 SWAP2 PUSH1 0xFF SWAP1 SWAP2 AND SWAP1 DUP6 JUMP JUMPDEST PUSH1 0x40 DUP1 MLOAD SWAP6 DUP7 MSTORE PUSH1 0x1 PUSH1 0x1 PUSH1 0xA0 SHL SUB SWAP1 SWAP5 AND PUSH1 0x20 DUP7 ADD MSTORE SWAP3 DUP5 ADD SWAP2 SWAP1 SWAP2 MSTORE ISZERO ISZERO PUSH1 0x60 DUP4 ADD MSTORE PUSH1 0x80 DUP3 ADD MSTORE PUSH1 0xA0 ADD PUSH2 0xF6 JUMP JUMPDEST PUSH2 0x1AF PUSH3 0x3B5380 DUP2 JUMP JUMPDEST PUSH1 0x40 MLOAD SWAP1 DUP2 MSTORE PUSH1 0x20 ADD PUSH2 0xF6 JUMP JUMPDEST PUSH2 0x112 PUSH2 0x671 JUMP JUMPDEST PUSH1 0x0 SLOAD PUSH1 0x40 MLOAD PUSH1 0x1 PUSH1 0x1 PUSH1 0xA0 SHL SUB SWAP1 SWAP2 AND DUP2 MSTORE PUSH1 0x20 ADD PUSH2 0xF6 JUMP JUMPDEST PUSH2 0x1AF PUSH3 0x93A80 DUP2 JUMP JUMPDEST PUSH2 0x1AF PUSH2 0x1F8 CALLDATASIZE PUSH1 0x4 PUSH2 0x92A JUMP JUMPDEST PUSH2 0x685 JUMP JUMPDEST PUSH2 0x223 PUSH2 0x20B CALLDATASIZE PUSH1 0x4 PUSH2 0x92A JUMP JUMPDEST PUSH1 0x0 SWAP1 DUP2 MSTORE PUSH1 0x1 PUSH1 0x20 MSTORE PUSH1 0x40 SWAP1 KECCAK256 PUSH1 0x3 ADD SLOAD PUSH1 0xFF AND SWAP1 JUMP JUMPDEST PUSH1 0x40 MLOAD SWAP1 ISZERO ISZERO DUP2 MSTORE PUSH1 0x20 ADD PUSH2 0xF6 JUMP JUMPDEST PUSH2 0x1AF PUSH3 0x1BAF80 DUP2 JUMP JUMPDEST PUSH2 0x112 PUSH2 0x24B CALLDATASIZE PUSH1 0x4 PUSH2 0x92A JUMP JUMPDEST PUSH2 0x6DD JUMP JUMPDEST PUSH2 0x112 PUSH2 0x25E CALLDATASIZE PUSH1 0x4 PUSH2 0x9EB JUMP JUMPDEST PUSH2 0x86F JUMP JUMPDEST PUSH1 0x0 DUP2 DUP2 MSTORE PUSH1 0x1 PUSH1 0x20 DUP2 SWAP1 MSTORE PUSH1 0x40 DUP3 KECCAK256 SWAP1 DUP2 ADD SLOAD DUP3 SWAP2 PUSH1 0x60 SWAP2 PUSH1 0x1 PUSH1 0x1 PUSH1 0xA0 SHL SUB AND PUSH2 0x2BC JUMPI POP POP PUSH1 0x40 DUP1 MLOAD DUP1 DUP3 ADD SWAP1 SWAP2 MSTORE PUSH1 0xE DUP2 MSTORE PUSH14 0x1B9BDD17DC9959DA5CDD195C9959 PUSH1 0x92 SHL PUSH1 0x20 DUP3 ADD MSTORE PUSH1 0x0 SWAP3 POP DUP3 SWAP2 POP PUSH2 0x3CE JUMP JUMPDEST PUSH1 0x0 PUSH3 0x15180 DUP3 PUSH1 0x2 ADD SLOAD TIMESTAMP PUSH2 0x2D2 SWAP2 SWAP1 PUSH2 0xA0D JUMP JUMPDEST PUSH2 0x2DC SWAP2 SWAP1 PUSH2 0xA2E JUMP JUMPDEST PUSH1 0x3 DUP4 ADD SLOAD SWAP1 SWAP2 POP PUSH1 0x60 SWAP1 PUSH1 0xFF AND DUP1 PUSH2 0x304 JUMPI POP PUSH2 0x300 PUSH3 0x15180 PUSH3 0x3B5380 PUSH2 0xA2E JUMP JUMPDEST DUP3 LT ISZERO JUMPDEST ISZERO PUSH2 0x32C JUMPI POP PUSH1 0x40 DUP1 MLOAD DUP1 DUP3 ADD SWAP1 SWAP2 MSTORE PUSH1 0x6 DUP2 MSTORE PUSH6 0x333937BD32B7 PUSH1 0xD1 SHL PUSH1 0x20 DUP3 ADD MSTORE PUSH2 0x3BE JUMP JUMPDEST PUSH2 0x33C PUSH3 0x15180 PUSH3 0x1BAF80 PUSH2 0xA2E JUMP JUMPDEST DUP3 LT PUSH2 0x365 JUMPI POP PUSH1 0x40 DUP1 MLOAD DUP1 DUP3 ADD SWAP1 SWAP2 MSTORE PUSH1 0x6 DUP2 MSTORE PUSH6 0x1C185D5CD959 PUSH1 0xD2 SHL PUSH1 0x20 DUP3 ADD MSTORE PUSH2 0x3BE JUMP JUMPDEST PUSH2 0x375 PUSH3 0x15180 PUSH3 0x93A80 PUSH2 0xA2E JUMP JUMPDEST DUP3 LT PUSH2 0x39F JUMPI POP PUSH1 0x40 DUP1 MLOAD DUP1 DUP3 ADD SWAP1 SWAP2 MSTORE PUSH1 0x7 DUP2 MSTORE PUSH7 0x7761726E696E67 PUSH1 0xC8 SHL PUSH1 0x20 DUP3 ADD MSTORE PUSH2 0x3BE JUMP JUMPDEST POP PUSH1 0x40 DUP1 MLOAD DUP1 DUP3 ADD SWAP1 SWAP2 MSTORE PUSH1 0x6 DUP2 MSTORE PUSH6 0x616374697665 PUSH1 0xD0 SHL PUSH1 0x20 DUP3 ADD MSTORE JUMPDEST PUSH1 0x3 SWAP1 SWAP3 ADD SLOAD PUSH1 0xFF AND SWAP5 POP SWAP3 POP SWAP1 POP JUMPDEST SWAP2 SWAP4 SWAP1 SWAP3 POP JUMP JUMPDEST PUSH2 0x3DD PUSH2 0x8AD JUMP JUMPDEST PUSH1 0x0 DUP3 DUP2 MSTORE PUSH1 0x1 PUSH1 0x20 DUP2 SWAP1 MSTORE PUSH1 0x40 SWAP1 SWAP2 KECCAK256 ADD SLOAD PUSH1 0x1 PUSH1 0x1 PUSH1 0xA0 SHL SUB AND ISZERO PUSH2 0x44B JUMPI PUSH1 0x40 MLOAD PUSH3 0x461BCD PUSH1 0xE5 SHL DUP2 MSTORE PUSH1 0x20 PUSH1 0x4 DUP3 ADD MSTORE PUSH1 0x1C PUSH1 0x24 DUP3 ADD MSTORE PUSH32 0x444D533A206361736520616C7265616479207265676973746572656400000000 PUSH1 0x44 DUP3 ADD MSTORE PUSH1 0x64 ADD JUMPDEST PUSH1 0x40 MLOAD DUP1 SWAP2 SUB SWAP1 REVERT JUMPDEST PUSH1 0x40 DUP1 MLOAD PUSH1 0xA0 DUP2 ADD DUP3 MSTORE DUP4 DUP2 MSTORE PUSH1 0x1 PUSH1 0x1 PUSH1 0xA0 SHL SUB DUP4 DUP2 AND PUSH1 0x20 DUP1 DUP5 ADD DUP3 DUP2 MSTORE TIMESTAMP DUP6 DUP8 ADD DUP2 DUP2 MSTORE PUSH1 0x0 PUSH1 0x60 DUP9 ADD DUP2 DUP2 MSTORE PUSH1 0x80 DUP10 ADD DUP3 DUP2 MSTORE DUP13 DUP4 MSTORE PUSH1 0x1 DUP1 DUP9 MSTORE SWAP3 DUP12 SWAP1 KECCAK256 SWAP10 MLOAD DUP11 SSTORE SWAP5 MLOAD SWAP2 DUP10 ADD DUP1 SLOAD PUSH1 0x1 PUSH1 0x1 PUSH1 0xA0 SHL SUB NOT AND SWAP3 SWAP1 SWAP9 AND SWAP2 SWAP1 SWAP2 OR SWAP1 SWAP7 SSTORE MLOAD PUSH1 0x2 DUP8 ADD SSTORE SWAP4 MLOAD PUSH1 0x3 DUP7 ADD DUP1 SLOAD PUSH1 0xFF NOT AND SWAP2 ISZERO ISZERO SWAP2 SWAP1 SWAP2 OR SWAP1 SSTORE MLOAD PUSH1 0x4 SWAP1 SWAP5 ADD SWAP4 SWAP1 SWAP4 SSTORE DUP4 MLOAD SWAP1 DUP2 MSTORE SWAP2 DUP3 ADD MSTORE DUP4 SWAP2 PUSH32 0xB92FB46AA31B4F88DCBD1367813392A58129453EA2F4659441E4E37C838E95C6 SWAP2 ADD PUSH1 0x40 MLOAD DUP1 SWAP2 SUB SWAP1 LOG2 POP POP JUMP JUMPDEST PUSH1 0x0 DUP2 DUP2 MSTORE PUSH1 0x1 PUSH1 0x20 DUP2 SWAP1 MSTORE PUSH1 0x40 SWAP1 SWAP2 KECCAK256 SWAP1 DUP2 ADD SLOAD PUSH1 0x1 PUSH1 0x1 PUSH1 0xA0 SHL SUB AND PUSH2 0x572 JUMPI PUSH1 0x40 MLOAD PUSH3 0x461BCD PUSH1 0xE5 SHL DUP2 MSTORE PUSH1 0x20 PUSH1 0x4 DUP3 ADD MSTORE PUSH1 0x18 PUSH1 0x24 DUP3 ADD MSTORE PUSH24 0x111354CE8818D85CD9481B9BDD081C9959DA5CDD195C9959 PUSH1 0x42 SHL PUSH1 0x44 DUP3 ADD MSTORE PUSH1 0x64 ADD PUSH2 0x442 JUMP JUMPDEST PUSH1 0x1 DUP2 ADD SLOAD PUSH1 0x1 PUSH1 0x1 PUSH1 0xA0 SHL SUB AND CALLER EQ DUP1 PUSH2 0x597 JUMPI POP PUSH1 0x0 SLOAD PUSH1 0x1 PUSH1 0x1 PUSH1 0xA0 SHL SUB AND CALLER EQ JUMPDEST PUSH2 0x5D9 JUMPI PUSH1 0x40 MLOAD PUSH3 0x461BCD PUSH1 0xE5 SHL DUP2 MSTORE PUSH1 0x20 PUSH1 0x4 DUP3 ADD MSTORE PUSH1 0x13 PUSH1 0x24 DUP3 ADD MSTORE PUSH19 0x111354CE881B9BDD08185D5D1A1BDC9A5E9959 PUSH1 0x6A SHL PUSH1 0x44 DUP3 ADD MSTORE PUSH1 0x64 ADD PUSH2 0x442 JUMP JUMPDEST PUSH1 0x3 DUP2 ADD DUP1 SLOAD TIMESTAMP PUSH1 0x2 DUP5 ADD SSTORE PUSH1 0xFF NOT DUP2 AND SWAP1 SWAP2 SSTORE PUSH1 0x0 PUSH1 0x4 DUP4 ADD SSTORE PUSH1 0xFF AND DUP1 ISZERO PUSH2 0x635 JUMPI PUSH1 0x40 MLOAD TIMESTAMP DUP2 MSTORE CALLER SWAP1 DUP5 SWAP1 PUSH32 0x3B0831A5AD6B304AE714FFA8E8DDE1F04F6308CFA2D56E9FCA95C0DB83B6AA31 SWAP1 PUSH1 0x20 ADD PUSH1 0x40 MLOAD DUP1 SWAP2 SUB SWAP1 LOG3 JUMPDEST PUSH1 0x40 MLOAD TIMESTAMP DUP2 MSTORE CALLER SWAP1 DUP5 SWAP1 PUSH32 0x259D65DAD1A77E11A039058D61231AEF39729EDFD89EBAF1221BDC88DC0D8002 SWAP1 PUSH1 0x20 ADD PUSH1 0x40 MLOAD DUP1 SWAP2 SUB SWAP1 LOG3 POP POP POP JUMP JUMPDEST PUSH2 0x679 PUSH2 0x8AD JUMP JUMPDEST PUSH2 0x683 PUSH1 0x0 PUSH2 0x8DA JUMP JUMPDEST JUMP JUMPDEST PUSH1 0x0 DUP2 DUP2 MSTORE PUSH1 0x1 PUSH1 0x20 DUP2 SWAP1 MSTORE PUSH1 0x40 DUP3 KECCAK256 ADD SLOAD PUSH1 0x1 PUSH1 0x1 PUSH1 0xA0 SHL SUB AND PUSH2 0x6AC JUMPI POP PUSH1 0x0 SWAP2 SWAP1 POP JUMP JUMPDEST PUSH1 0x0 DUP3 DUP2 MSTORE PUSH1 0x1 PUSH1 0x20 MSTORE PUSH1 0x40 SWAP1 KECCAK256 PUSH1 0x2 ADD SLOAD PUSH3 0x15180 SWAP1 PUSH2 0x6CD SWAP1 TIMESTAMP PUSH2 0xA0D JUMP JUMPDEST PUSH2 0x6D7 SWAP2 SWAP1 PUSH2 0xA2E JUMP JUMPDEST SWAP3 SWAP2 POP POP JUMP JUMPDEST PUSH2 0x6E5 PUSH2 0x8AD JUMP JUMPDEST PUSH1 0x0 DUP2 DUP2 MSTORE PUSH1 0x1 PUSH1 0x20 DUP2 SWAP1 MSTORE PUSH1 0x40 SWAP1 SWAP2 KECCAK256 SWAP1 DUP2 ADD SLOAD PUSH1 0x1 PUSH1 0x1 PUSH1 0xA0 SHL SUB AND PUSH2 0x74A JUMPI PUSH1 0x40 MLOAD PUSH3 0x461BCD PUSH1 0xE5 SHL DUP2 MSTORE PUSH1 0x20 PUSH1 0x4 DUP3 ADD MSTORE PUSH1 0x18 PUSH1 0x24 DUP3 ADD MSTORE PUSH24 0x111354CE8818D85CD9481B9BDD081C9959DA5CDD195C9959 PUSH1 0x42 SHL PUSH1 0x44 DUP3 ADD MSTORE PUSH1 0x64 ADD PUSH2 0x442 JUMP JUMPDEST PUSH1 0x3 DUP2 ADD SLOAD PUSH1 0xFF AND ISZERO PUSH2 0x795 JUMPI PUSH1 0x40 MLOAD PUSH3 0x461BCD PUSH1 0xE5 SHL DUP2 MSTORE PUSH1 0x20 PUSH1 0x4 DUP3 ADD MSTORE PUSH1 0x13 PUSH1 0x24 DUP3 ADD MSTORE PUSH19 0x2226A99D1030B63932B0B23C90333937BD32B7 PUSH1 0x69 SHL PUSH1 0x44 DUP3 ADD MSTORE PUSH1 0x64 ADD PUSH2 0x442 JUMP JUMPDEST PUSH1 0x0 PUSH3 0x15180 DUP3 PUSH1 0x2 ADD SLOAD TIMESTAMP PUSH2 0x7AB SWAP2 SWAP1 PUSH2 0xA0D JUMP JUMPDEST PUSH2 0x7B5 SWAP2 SWAP1 PUSH2 0xA2E JUMP JUMPDEST SWAP1 POP PUSH1 0x2D DUP2 LT ISZERO PUSH2 0x812 JUMPI PUSH1 0x40 MLOAD PUSH3 0x461BCD PUSH1 0xE5 SHL DUP2 MSTORE PUSH1 0x20 PUSH1 0x4 DUP3 ADD MSTORE PUSH1 0x21 PUSH1 0x24 DUP3 ADD MSTORE PUSH32 0x444D533A20343520646179207468726573686F6C64206E6F7420726561636865 PUSH1 0x44 DUP3 ADD MSTORE PUSH1 0x19 PUSH1 0xFA SHL PUSH1 0x64 DUP3 ADD MSTORE PUSH1 0x84 ADD PUSH2 0x442 JUMP JUMPDEST PUSH1 0x3 DUP3 ADD DUP1 SLOAD PUSH1 0xFF NOT AND PUSH1 0x1 OR SWAP1 SSTORE TIMESTAMP PUSH1 0x4 DUP4 ADD DUP2 SWAP1 SSTORE PUSH1 0x40 MLOAD DUP5 SWAP2 PUSH32 0x69984616CA9D825DB966F82BCE73E68DF11DF91E363CA68A8390FD7B3667C56F SWAP2 PUSH2 0x862 SWAP2 DUP6 DUP3 MSTORE PUSH1 0x20 DUP3 ADD MSTORE PUSH1 0x40 ADD SWAP1 JUMP JUMPDEST PUSH1 0x40 MLOAD DUP1 SWAP2 SUB SWAP1 LOG2 POP POP POP JUMP JUMPDEST PUSH2 0x877 PUSH2 0x8AD JUMP JUMPDEST PUSH1 0x1 PUSH1 0x1 PUSH1 0xA0 SHL SUB DUP2 AND PUSH2 0x8A1 JUMPI PUSH1 0x40 MLOAD PUSH4 0x1E4FBDF7 PUSH1 0xE0 SHL DUP2 MSTORE PUSH1 0x0 PUSH1 0x4 DUP3 ADD MSTORE PUSH1 0x24 ADD PUSH2 0x442 JUMP JUMPDEST PUSH2 0x8AA DUP2 PUSH2 0x8DA JUMP JUMPDEST POP JUMP JUMPDEST PUSH1 0x0 SLOAD PUSH1 0x1 PUSH1 0x1 PUSH1 0xA0 SHL SUB AND CALLER EQ PUSH2 0x683 JUMPI PUSH1 0x40 MLOAD PUSH4 0x118CDAA7 PUSH1 0xE0 SHL DUP2 MSTORE CALLER PUSH1 0x4 DUP3 ADD MSTORE PUSH1 0x24 ADD PUSH2 0x442 JUMP JUMPDEST PUSH1 0x0 DUP1 SLOAD PUSH1 0x1 PUSH1 0x1 PUSH1 0xA0 SHL SUB DUP4 DUP2 AND PUSH1 0x1 PUSH1 0x1 PUSH1 0xA0 SHL SUB NOT DUP4 AND DUP2 OR DUP5 SSTORE PUSH1 0x40 MLOAD SWAP2 SWAP1 SWAP3 AND SWAP3 DUP4 SWAP2 PUSH32 0x8BE0079C531659141344CD1FD0A4F28419497F9722A3DAAFE3B4186F6B6457E0 SWAP2 SWAP1 LOG3 POP POP JUMP JUMPDEST PUSH1 0x0 PUSH1 0x20 DUP3 DUP5 SUB SLT ISZERO PUSH2 0x93C JUMPI PUSH1 0x0 DUP1 REVERT JUMPDEST POP CALLDATALOAD SWAP2 SWAP1 POP JUMP JUMPDEST DUP4 ISZERO ISZERO DUP2 MSTORE PUSH1 0x0 PUSH1 0x20 DUP5 PUSH1 0x20 DUP5 ADD MSTORE PUSH1 0x60 PUSH1 0x40 DUP5 ADD MSTORE DUP4 MLOAD DUP1 PUSH1 0x60 DUP6 ADD MSTORE PUSH1 0x0 JUMPDEST DUP2 DUP2 LT ISZERO PUSH2 0x980 JUMPI DUP6 DUP2 ADD DUP4 ADD MLOAD DUP6 DUP3 ADD PUSH1 0x80 ADD MSTORE DUP3 ADD PUSH2 0x964 JUMP JUMPDEST POP PUSH1 0x0 PUSH1 0x80 DUP3 DUP7 ADD ADD MSTORE PUSH1 0x80 PUSH1 0x1F NOT PUSH1 0x1F DUP4 ADD AND DUP6 ADD ADD SWAP3 POP POP POP SWAP5 SWAP4 POP POP POP POP JUMP JUMPDEST DUP1 CALLDATALOAD PUSH1 0x1 PUSH1 0x1 PUSH1 0xA0 SHL SUB DUP2 AND DUP2 EQ PUSH2 0x9BA JUMPI PUSH1 0x0 DUP1 REVERT JUMPDEST SWAP2 SWAP1 POP JUMP JUMPDEST PUSH1 0x0 DUP1 PUSH1 0x40 DUP4 DUP6 SUB SLT ISZERO PUSH2 0x9D2 JUMPI PUSH1 0x0 DUP1 REVERT JUMPDEST DUP3 CALLDATALOAD SWAP2 POP PUSH2 0x9E2 PUSH1 0x20 DUP5 ADD PUSH2 0x9A3 JUMP JUMPDEST SWAP1 POP SWAP3 POP SWAP3 SWAP1 POP JUMP JUMPDEST PUSH1 0x0 PUSH1 0x20 DUP3 DUP5 SUB SLT ISZERO PUSH2 0x9FD JUMPI PUSH1 0x0 DUP1 REVERT JUMPDEST PUSH2 0xA06 DUP3 PUSH2 0x9A3 JUMP JUMPDEST SWAP4 SWAP3 POP POP POP JUMP JUMPDEST DUP2 DUP2 SUB DUP2 DUP2 GT ISZERO PUSH2 0x6D7 JUMPI PUSH4 0x4E487B71 PUSH1 0xE0 SHL PUSH1 0x0 MSTORE PUSH1 0x11 PUSH1 0x4 MSTORE PUSH1 0x24 PUSH1 0x0 REVERT JUMPDEST PUSH1 0x0 DUP3 PUSH2 0xA4B JUMPI PUSH4 0x4E487B71 PUSH1 0xE0 SHL PUSH1 0x0 MSTORE PUSH1 0x12 PUSH1 0x4 MSTORE PUSH1 0x24 PUSH1 0x0 REVERT JUMPDEST POP DIV SWAP1 JUMP INVALID LOG2 PUSH5 0x6970667358 0x22 SLT KECCAK256 DUP11 REVERT PUSH32 0xBB8BD3334E66796C03D55582F313ECBE84102652D75309D527E1D3192D64736F PUSH13 0x63430008180033000000000000 "},"methodIdentifiers":{"CHECKIN_WARNING()":"a2237ce5","FREEZE_THRESHOLD()":"6626dda0","PAUSE_THRESHOLD()":"e15ec557","cases(bytes32)":"48ea1c23","checkIn(bytes32)":"4662d1dd","freezeCase(bytes32)":"e40a3478","getCaseStatus(bytes32)":"258198af","getDaysSinceCheckIn(bytes32)":"b6bcbb49","isCaseFrozen(bytes32)":"db63d472","owner()":"8da5cb5b","registerCase(bytes32,address)":"383b6e7b","renounceOwnership()":"715018a6","transferOwnership(address)":"f2fde38b"}}}}}