{
  "_format": "hh-sol-artifact-1",
  "contractName": "DeadManSwitch",
  "sourceName": "contracts/DeadManSwitch.sol",
  "abi": [
    {
      "inputs": [
        {
          "internalType": "address",
          "name": "initialOwner",
          "type": "address"
        }
      ],
      "stateMutability": "nonpayable",
      "type": "constructor"
    },
    {
      "inputs": [
        {
          "internalType": "address",
          "name": "owner",
          "type": "address"
        }
      ],
      "name": "OwnableInvalidOwner",
      "type": "error"
    },
    {
      "inputs": [
        {
          "internalType": "address",
          "name": "account",
          "type": "address"
        }
      ],
      "name": "OwnableUnauthorizedAccount",
      "type": "error"
    },
    {
      "anonymous": false,
      "inputs": [
        {
          "indexed": true,
          "internalType": "bytes32",
          "name": "caseId",
          "type": "bytes32"
        },
        {
          "indexed": false,
          "internalType": "uint256",
          "name": "inactiveDays",
          "type": "uint256"
        },
        {
          "indexed": false,
          "internalType": "uint256",
          "name": "timestamp",
          "type": "uint256"
        }
      ],
      "name": "CaseFrozen",
      "type": "event"
    },
    {
      "anonymous": false,
      "inputs": [
        {
          "indexed": true,
          "internalType": "bytes32",
          "name": "caseId",
          "type": "bytes32"
        },
        {
          "indexed": false,
          "internalType": "address",
          "name": "userWallet",
          "type": "address"
        },
        {
          "indexed": false,
          "internalType": "uint256",
          "name": "timestamp",
          "type": "uint256"
        }
      ],
      "name": "CaseRegistered",
      "type": "event"
    },
    {
      "anonymous": false,
      "inputs": [
        {
          "indexed": true,
          "internalType": "bytes32",
          "name": "caseId",
          "type": "bytes32"
        },
        {
          "indexed": true,
          "internalType": "address",
          "name": "user",
          "type": "address"
        },
        {
          "indexed": false,
          "internalType": "uint256",
          "name": "timestamp",
          "type": "uint256"
        }
      ],
      "name": "CaseUnfrozen",
      "type": "event"
    },
    {
      "anonymous": false,
      "inputs": [
        {
          "indexed": true,
          "internalType": "bytes32",
          "name": "caseId",
          "type": "bytes32"
        },
        {
          "indexed": true,
          "internalType": "address",
          "name": "user",
          "type": "address"
        },
        {
          "indexed": false,
          "internalType": "uint256",
          "name": "timestamp",
          "type": "uint256"
        }
      ],
      "name": "CheckedIn",
      "type": "event"
    },
    {
      "anonymous": false,
      "inputs": [
        {
          "indexed": true,
          "internalType": "address",
          "name": "previousOwner",
          "type": "address"
        },
        {
          "indexed": true,
          "internalType": "address",
          "name": "newOwner",
          "type": "address"
        }
      ],
      "name": "OwnershipTransferred",
      "type": "event"
    },
    {
      "inputs": [],
      "name": "CHECKIN_WARNING",
      "outputs": [
        {
          "internalType": "uint256",
          "name": "",
          "type": "uint256"
        }
      ],
      "stateMutability": "view",
      "type": "function"
    },
    {
      "inputs": [],
      "name": "FREEZE_THRESHOLD",
      "outputs": [
        {
          "internalType": "uint256",
          "name": "",
          "type": "uint256"
        }
      ],
      "stateMutability": "view",
      "type": "function"
    },
    {
      "inputs": [],
      "name": "PAUSE_THRESHOLD",
      "outputs": [
        {
          "internalType": "uint256",
          "name": "",
          "type": "uint256"
        }
      ],
      "stateMutability": "view",
      "type": "function"
    },
    {
      "inputs": [
        {
          "internalType": "bytes32",
          "name": "",
          "type": "bytes32"
        }
      ],
      "name": "cases",
      "outputs": [
        {
          "internalType": "bytes32",
          "name": "caseId",
          "type": "bytes32"
        },
        {
          "internalType": "address",
          "name": "userWallet",
          "type": "address"
        },
        {
          "internalType": "uint256",
          "name": "lastCheckIn",
          "type": "uint256"
        },
        {
          "internalType": "bool",
          "name": "isFrozen",
          "type": "bool"
        },
        {
          "internalType": "uint256",
          "name": "frozenAt",
          "type": "uint256"
        }
      ],
      "stateMutability": "view",
      "type": "function"
    },
    {
      "inputs": [
        {
          "internalType": "bytes32",
          "name": "caseId",
          "type": "bytes32"
        }
      ],
      "name": "checkIn",
      "outputs": [],
      "stateMutability": "nonpayable",
      "type": "function"
    },
    {
      "inputs": [
        {
          "internalType": "bytes32",
          "name": "caseId",
          "type": "bytes32"
        }
      ],
      "name": "freezeCase",
      "outputs": [],
      "stateMutability": "nonpayable",
      "type": "function"
    },
    {
      "inputs": [
        {
          "internalType": "bytes32",
          "name": "caseId",
          "type": "bytes32"
        }
      ],
      "name": "getCaseStatus",
      "outputs": [
        {
          "internalType": "bool",
          "name": "isFrozen",
          "type": "bool"
        },
        {
          "internalType": "uint256",
          "name": "daysSinceCheckIn",
          "type": "uint256"
        },
        {
          "internalType": "string",
          "name": "phase",
          "type": "string"
        }
      ],
      "stateMutability": "view",
      "type": "function"
    },
    {
      "inputs": [
        {
          "internalType": "bytes32",
          "name": "caseId",
          "type": "bytes32"
        }
      ],
      "name": "getDaysSinceCheckIn",
      "outputs": [
        {
          "internalType": "uint256",
          "name": "",
          "type": "uint256"
        }
      ],
      "stateMutability": "view",
      "type": "function"
    },
    {
      "inputs": [
        {
          "internalType": "bytes32",
          "name": "caseId",
          "type": "bytes32"
        }
      ],
      "name": "isCaseFrozen",
      "outputs": [
        {
          "internalType": "bool",
          "name": "",
          "type": "bool"
        }
      ],
      "stateMutability": "view",
      "type": "function"
    },
    {
      "inputs": [],
      "name": "owner",
      "outputs": [
        {
          "internalType": "address",
          "name": "",
          "type": "address"
        }
      ],
      "stateMutability": "view",
      "type": "function"
    },
    {
      "inputs": [
        {
          "internalType": "bytes32",
          "name": "caseId",
          "type": "bytes32"
        },
        {
          "internalType": "address",
          "name": "userWallet",
          "type": "address"
        }
      ],
      "name": "registerCase",
      "outputs": [],
      "stateMutability": "nonpayable",
      "type": "function"
    },
    {
      "inputs": [],
      "name": "renounceOwnership",
      "outputs": [],
      "stateMutability": "nonpayable",
      "type": "function"
    },
    {
      "inputs": [
        {
          "internalType": "address",
          "name": "newOwner",
          "type": "address"
        }
      ],
      "name": "transferOwnership",
      "outputs": [],
      "stateMutability": "nonpayable",
      "type": "function"
    }
  ],
  "bytecode": "0x608060405234801561001057600080fd5b50604051610b83380380610b8383398101604081905261002f916100be565b806001600160a01b03811661005e57604051631e4fbdf760e01b81526000600482015260240160405180910390fd5b6100678161006e565b50506100ee565b600080546001600160a01b038381166001600160a01b0319831681178455604051919092169283917f8be0079c531659141344cd1fd0a4f28419497f9722a3daafe3b4186f6b6457e09190a35050565b6000602082840312156100d057600080fd5b81516001600160a01b03811681146100e757600080fd5b9392505050565b610a86806100fd6000396000f3fe608060405234801561001057600080fd5b50600436106100cf5760003560e01c80638da5cb5b1161008c578063db63d47211610066578063db63d472146101fd578063e15ec55714610233578063e40a34781461023d578063f2fde38b1461025057600080fd5b80638da5cb5b146101c5578063a2237ce5146101e0578063b6bcbb49146101ea57600080fd5b8063258198af146100d4578063383b6e7b146100ff5780634662d1dd1461011457806348ea1c23146101275780636626dda0146101a5578063715018a6146101bd575b600080fd5b6100e76100e236600461092a565b610263565b6040516100f693929190610943565b60405180910390f35b61011261010d3660046109bf565b6103d5565b005b61011261012236600461092a565b61050d565b61017361013536600461092a565b6001602081905260009182526040909120805491810154600282015460038301546004909301546001600160a01b0390921692909160ff9091169085565b604080519586526001600160a01b0390941660208601529284019190915215156060830152608082015260a0016100f6565b6101af623b538081565b6040519081526020016100f6565b610112610671565b6000546040516001600160a01b0390911681526020016100f6565b6101af62093a8081565b6101af6101f836600461092a565b610685565b61022361020b36600461092a565b60009081526001602052604090206003015460ff1690565b60405190151581526020016100f6565b6101af621baf8081565b61011261024b36600461092a565b6106dd565b61011261025e3660046109eb565b61086f565b600081815260016020819052604082209081015482916060916001600160a01b03166102bc57505060408051808201909152600e81526d1b9bdd17dc9959da5cdd195c995960921b6020820152600092508291506103ce565b6000620151808260020154426102d29190610a0d565b6102dc9190610a2e565b600383015490915060609060ff1680610304575061030062015180623b5380610a2e565b8210155b1561032c5750604080518082019091526006815265333937bd32b760d11b60208201526103be565b61033c62015180621baf80610a2e565b821061036557506040805180820190915260068152651c185d5cd95960d21b60208201526103be565b6103756201518062093a80610a2e565b821061039f57506040805180820190915260078152667761726e696e6760c81b60208201526103be565b5060408051808201909152600681526561637469766560d01b60208201525b60039092015460ff169450925090505b9193909250565b6103dd6108ad565b600082815260016020819052604090912001546001600160a01b03161561044b5760405162461bcd60e51b815260206004820152601c60248201527f444d533a206361736520616c726561647920726567697374657265640000000060448201526064015b60405180910390fd5b6040805160a0810182528381526001600160a01b03838116602080840182815242858701818152600060608801818152608089018281528c83526001808852928b902099518a55945191890180546001600160a01b0319169290981691909117909655516002870155935160038601805460ff19169115159190911790555160049094019390935583519081529182015283917fb92fb46aa31b4f88dcbd1367813392a58129453ea2f4659441e4e37c838e95c6910160405180910390a25050565b6000818152600160208190526040909120908101546001600160a01b03166105725760405162461bcd60e51b8152602060048201526018602482015277111354ce8818d85cd9481b9bdd081c9959da5cdd195c995960421b6044820152606401610442565b60018101546001600160a01b031633148061059757506000546001600160a01b031633145b6105d95760405162461bcd60e51b8152602060048201526013602482015272111354ce881b9bdd08185d5d1a1bdc9a5e9959606a1b6044820152606401610442565b60038101805442600284015560ff1981169091556000600483015560ff16801561063557604051428152339084907f3b0831a5ad6b304ae714ffa8e8dde1f04f6308cfa2d56e9fca95c0db83b6aa319060200160405180910390a35b604051428152339084907f259d65dad1a77e11a039058d61231aef39729edfd89ebaf1221bdc88dc0d80029060200160405180910390a3505050565b6106796108ad565b61068360006108da565b565b6000818152600160208190526040822001546001600160a01b03166106ac57506000919050565b60008281526001602052604090206002015462015180906106cd9042610a0d565b6106d79190610a2e565b92915050565b6106e56108ad565b6000818152600160208190526040909120908101546001600160a01b031661074a5760405162461bcd60e51b8152602060048201526018602482015277111354ce8818d85cd9481b9bdd081c9959da5cdd195c995960421b6044820152606401610442565b600381015460ff16156107955760405162461bcd60e51b81526020600482015260136024820152722226a99d1030b63932b0b23c90333937bd32b760691b6044820152606401610442565b6000620151808260020154426107ab9190610a0d565b6107b59190610a2e565b9050602d8110156108125760405162461bcd60e51b815260206004820152602160248201527f444d533a20343520646179207468726573686f6c64206e6f74207265616368656044820152601960fa1b6064820152608401610442565b60038201805460ff19166001179055426004830181905560405184917f69984616ca9d825db966f82bce73e68df11df91e363ca68a8390fd7b3667c56f9161086291858252602082015260400190565b60405180910390a2505050565b6108776108ad565b6001600160a01b0381166108a157604051631e4fbdf760e01b815260006004820152602401610442565b6108aa816108da565b50565b6000546001600160a01b031633146106835760405163118cdaa760e01b8152336004820152602401610442565b600080546001600160a01b038381166001600160a01b0319831681178455604051919092169283917f8be0079c531659141344cd1fd0a4f28419497f9722a3daafe3b4186f6b6457e09190a35050565b60006020828403121561093c57600080fd5b5035919050565b83151581526000602084602084015260606040840152835180606085015260005b8181101561098057858101830151858201608001528201610964565b506000608082860101526080601f19601f83011685010192505050949350505050565b80356001600160a01b03811681146109ba57600080fd5b919050565b600080604083850312156109d257600080fd5b823591506109e2602084016109a3565b90509250929050565b6000602082840312156109fd57600080fd5b610a06826109a3565b9392505050565b818103818111156106d757634e487b7160e01b600052601160045260246000fd5b600082610a4b57634e487b7160e01b600052601260045260246000fd5b50049056fea26469706673582212208afd7fbb8bd3334e66796c03d55582f313ecbe84102652d75309d527e1d3192d64736f6c63430008180033",
  "linkReferences": {},
  "deployedLinkReferences": {}
}