{
  "_format": "hh-sol-artifact-1",
  "contractName": "ProofTimeline",
  "sourceName": "contracts/ProofTimeline.sol",
  "abi": [
    {
      "inputs": [
        {
          "internalType": "address",
          "name": "initialOwner",
          "type": "address"
        }
      ],
      "stateMutability": "nonpayable",
      "type": "constructor"
    },
    {
      "inputs": [
        {
          "internalType": "address",
          "name": "owner",
          "type": "address"
        }
      ],
      "name": "OwnableInvalidOwner",
      "type": "error"
    },
    {
      "inputs": [
        {
          "internalType": "address",
          "name": "account",
          "type": "address"
        }
      ],
      "name": "OwnableUnauthorizedAccount",
      "type": "error"
    },
    {
      "anonymous": false,
      "inputs": [
        {
          "indexed": true,
          "internalType": "bytes32",
          "name": "caseId",
          "type": "bytes32"
        },
        {
          "indexed": false,
          "internalType": "string",
          "name": "eventType",
          "type": "string"
        },
        {
          "indexed": false,
          "internalType": "bytes32",
          "name": "dataHash",
          "type": "bytes32"
        },
        {
          "indexed": false,
          "internalType": "uint256",
          "name": "timestamp",
          "type": "uint256"
        },
        {
          "indexed": false,
          "internalType": "uint256",
          "name": "eventIndex",
          "type": "uint256"
        }
      ],
      "name": "EventRecorded",
      "type": "event"
    },
    {
      "anonymous": false,
      "inputs": [
        {
          "indexed": true,
          "internalType": "address",
          "name": "previousOwner",
          "type": "address"
        },
        {
          "indexed": true,
          "internalType": "address",
          "name": "newOwner",
          "type": "address"
        }
      ],
      "name": "OwnershipTransferred",
      "type": "event"
    },
    {
      "inputs": [
        {
          "internalType": "bytes32",
          "name": "caseId",
          "type": "bytes32"
        },
        {
          "internalType": "uint256",
          "name": "index",
          "type": "uint256"
        }
      ],
      "name": "getEvent",
      "outputs": [
        {
          "components": [
            {
              "internalType": "bytes32",
              "name": "caseId",
              "type": "bytes32"
            },
            {
              "internalType": "string",
              "name": "eventType",
              "type": "string"
            },
            {
              "internalType": "bytes32",
              "name": "dataHash",
              "type": "bytes32"
            },
            {
              "internalType": "string",
              "name": "description",
              "type": "string"
            },
            {
              "internalType": "uint256",
              "name": "timestamp",
              "type": "uint256"
            },
            {
              "internalType": "address",
              "name": "recordedBy",
              "type": "address"
            }
          ],
          "internalType": "struct ProofTimeline.TimelineEvent",
          "name": "",
          "type": "tuple"
        }
      ],
      "stateMutability": "view",
      "type": "function"
    },
    {
      "inputs": [
        {
          "internalType": "bytes32",
          "name": "caseId",
          "type": "bytes32"
        }
      ],
      "name": "getTimelineLength",
      "outputs": [
        {
          "internalType": "uint256",
          "name": "",
          "type": "uint256"
        }
      ],
      "stateMutability": "view",
      "type": "function"
    },
    {
      "inputs": [],
      "name": "owner",
      "outputs": [
        {
          "internalType": "address",
          "name": "",
          "type": "address"
        }
      ],
      "stateMutability": "view",
      "type": "function"
    },
    {
      "inputs": [
        {
          "internalType": "bytes32",
          "name": "caseId",
          "type": "bytes32"
        },
        {
          "internalType": "string",
          "name": "eventType",
          "type": "string"
        },
        {
          "internalType": "bytes32",
          "name": "dataHash",
          "type": "bytes32"
        },
        {
          "internalType": "string",
          "name": "description",
          "type": "string"
        }
      ],
      "name": "recordEvent",
      "outputs": [],
      "stateMutability": "nonpayable",
      "type": "function"
    },
    {
      "inputs": [],
      "name": "renounceOwnership",
      "outputs": [],
      "stateMutability": "nonpayable",
      "type": "function"
    },
    {
      "inputs": [
        {
          "internalType": "bytes32",
          "name": "",
          "type": "bytes32"
        },
        {
          "internalType": "uint256",
          "name": "",
          "type": "uint256"
        }
      ],
      "name": "timelines",
      "outputs": [
        {
          "internalType": "bytes32",
          "name": "caseId",
          "type": "bytes32"
        },
        {
          "internalType": "string",
          "name": "eventType",
          "type": "string"
        },
        {
          "internalType": "bytes32",
          "name": "dataHash",
          "type": "bytes32"
        },
        {
          "internalType": "string",
          "name": "description",
          "type": "string"
        },
        {
          "internalType": "uint256",
          "name": "timestamp",
          "type": "uint256"
        },
        {
          "internalType": "address",
          "name": "recordedBy",
          "type": "address"
        }
      ],
      "stateMutability": "view",
      "type": "function"
    },
    {
      "inputs": [],
      "name": "totalEvents",
      "outputs": [
        {
          "internalType": "uint256",
          "name": "",
          "type": "uint256"
        }
      ],
      "stateMutability": "view",
      "type": "function"
    },
    {
      "inputs": [
        {
          "internalType": "address",
          "name": "newOwner",
          "type": "address"
        }
      ],
      "name": "transferOwnership",
      "outputs": [],
      "stateMutability": "nonpayable",
      "type": "function"
    },
    {
      "inputs": [
        {
          "internalType": "bytes32",
          "name": "caseId",
          "type": "bytes32"
        },
        {
          "internalType": "uint256",
          "name": "index",
          "type": "uint256"
        },
        {
          "internalType": "bytes32",
          "name": "claimedDataHash",
          "type": "bytes32"
        }
      ],
      "name": "verifyEvent",
      "outputs": [
        {
          "internalType": "bool",
          "name": "",
          "type": "bool"
        }
      ],
      "stateMutability": "view",
      "type": "function"
    }
  ],
  "bytecode": "0x608060405234801561001057600080fd5b50604051610dd9380380610dd983398101604081905261002f916100be565b806001600160a01b03811661005e57604051631e4fbdf760e01b81526000600482015260240160405180910390fd5b6100678161006e565b50506100ee565b600080546001600160a01b038381166001600160a01b0319831681178455604051919092169283917f8be0079c531659141344cd1fd0a4f28419497f9722a3daafe3b4186f6b6457e09190a35050565b6000602082840312156100d057600080fd5b81516001600160a01b03811681146100e757600080fd5b9392505050565b610cdc806100fd6000396000f3fe608060405234801561001057600080fd5b50600436106100935760003560e01c8063ba87068611610066578063ba87068614610103578063d2456dce1461010c578063e7fe33db14610131578063ed098a5b14610154578063f2fde38b1461017457600080fd5b8063660ef48414610098578063715018a6146100ad5780638da5cb5b146100b5578063afeeb456146100d5575b600080fd5b6100ab6100a636600461089a565b610187565b005b6100ab610380565b6000546040516001600160a01b0390911681526020015b60405180910390f35b6100f56100e336600461091d565b60009081526001602052604090205490565b6040519081526020016100cc565b6100f560025481565b61011f61011a366004610936565b610394565b6040516100cc9695949392919061099e565b61014461013f3660046109f3565b610507565b60405190151581526020016100cc565b610167610162366004610936565b610564565b6040516100cc9190610a1f565b6100ab610182366004610a98565b610796565b61018f6107d4565b836101f25760405162461bcd60e51b815260206004820152602860248201527f50726f6f6654696d656c696e653a206576656e74547970652063616e6e6f7420604482015267626520656d70747960c01b60648201526084015b60405180910390fd5b6000868152600160209081526040918290208054835160c0810185528a81528451601f8a01859004850281018501909552888552909391929091828201918a908a9081908401838280828437600092019190915250505090825250602080820188905260408051601f88018390048302810183018252878152920191908790879081908401838280828437600092018290525093855250504260208085019190915233604090940193909352508354600181810186559482529082902083516006909202019081559082015191929091908201906102d09082610b62565b5060408201516002820155606082015160038201906102ef9082610b62565b506080820151600482015560a090910151600590910180546001600160a01b0319166001600160a01b039092169190911790556002805490600061033283610c22565b9190505550867f746b1e9896b1d3b55cd3417776095e7c16e0d3f3315e0f4d2aec6b161b0f45ff878787428660405161036f959493929190610c49565b60405180910390a250505050505050565b6103886107d4565b6103926000610801565b565b600160205281600052604060002081815481106103b057600080fd5b9060005260206000209060060201600091509150508060000154908060010180546103da90610ad7565b80601f016020809104026020016040519081016040528092919081815260200182805461040690610ad7565b80156104535780601f1061042857610100808354040283529160200191610453565b820191906000526020600020905b81548152906001019060200180831161043657829003601f168201915b50505050509080600201549080600301805461046e90610ad7565b80601f016020809104026020016040519081016040528092919081815260200182805461049a90610ad7565b80156104e75780601f106104bc576101008083540402835291602001916104e7565b820191906000526020600020905b8154815290600101906020018083116104ca57829003601f168201915b5050505060048301546005909301549192916001600160a01b0316905086565b60008381526001602052604081205483106105245750600061055d565b600084815260016020526040902080548391908590811061054757610547610c90565b9060005260206000209060060201600201541490505b9392505050565b6040805160c0810182526000808252606060208301819052928201819052828201929092526080810182905260a081019190915260008381526001602052604090205482106106005760405162461bcd60e51b815260206004820152602260248201527f50726f6f6654696d656c696e653a20696e646578206f7574206f6620626f756e604482015261647360f01b60648201526084016101e9565b600083815260016020526040902080548390811061062057610620610c90565b90600052602060002090600602016040518060c00160405290816000820154815260200160018201805461065390610ad7565b80601f016020809104026020016040519081016040528092919081815260200182805461067f90610ad7565b80156106cc5780601f106106a1576101008083540402835291602001916106cc565b820191906000526020600020905b8154815290600101906020018083116106af57829003601f168201915b50505050508152602001600282015481526020016003820180546106ef90610ad7565b80601f016020809104026020016040519081016040528092919081815260200182805461071b90610ad7565b80156107685780601f1061073d57610100808354040283529160200191610768565b820191906000526020600020905b81548152906001019060200180831161074b57829003601f168201915b5050509183525050600482015460208201526005909101546001600160a01b03166040909101529392505050565b61079e6107d4565b6001600160a01b0381166107c857604051631e4fbdf760e01b8152600060048201526024016101e9565b6107d181610801565b50565b6000546001600160a01b031633146103925760405163118cdaa760e01b81523360048201526024016101e9565b600080546001600160a01b038381166001600160a01b0319831681178455604051919092169283917f8be0079c531659141344cd1fd0a4f28419497f9722a3daafe3b4186f6b6457e09190a35050565b60008083601f84011261086357600080fd5b50813567ffffffffffffffff81111561087b57600080fd5b60208301915083602082850101111561089357600080fd5b9250929050565b600080600080600080608087890312156108b357600080fd5b86359550602087013567ffffffffffffffff808211156108d257600080fd5b6108de8a838b01610851565b90975095506040890135945060608901359150808211156108fe57600080fd5b5061090b89828a01610851565b979a9699509497509295939492505050565b60006020828403121561092f57600080fd5b5035919050565b6000806040838503121561094957600080fd5b50508035926020909101359150565b6000815180845260005b8181101561097e57602081850181015186830182015201610962565b506000602082860101526020601f19601f83011685010191505092915050565b86815260c0602082015260006109b760c0830188610958565b86604084015282810360608401526109cf8187610958565b608084019590955250506001600160a01b039190911660a090910152949350505050565b600080600060608486031215610a0857600080fd5b505081359360208301359350604090920135919050565b60208152815160208201526000602083015160c06040840152610a4560e0840182610958565b9050604084015160608401526060840151601f19848303016080850152610a6c8282610958565b608086015160a086810191909152909501516001600160a01b031660c090940193909352509192915050565b600060208284031215610aaa57600080fd5b81356001600160a01b038116811461055d57600080fd5b634e487b7160e01b600052604160045260246000fd5b600181811c90821680610aeb57607f821691505b602082108103610b0b57634e487b7160e01b600052602260045260246000fd5b50919050565b601f821115610b5d576000816000526020600020601f850160051c81016020861015610b3a5750805b601f850160051c820191505b81811015610b5957828155600101610b46565b5050505b505050565b815167ffffffffffffffff811115610b7c57610b7c610ac1565b610b9081610b8a8454610ad7565b84610b11565b602080601f831160018114610bc55760008415610bad5750858301515b600019600386901b1c1916600185901b178555610b59565b600085815260208120601f198616915b82811015610bf457888601518255948401946001909101908401610bd5565b5085821015610c125787850151600019600388901b60f8161c191681555b5050505050600190811b01905550565b600060018201610c4257634e487b7160e01b600052601160045260246000fd5b5060010190565b60808152846080820152848660a0830137600060a08683010152600060a0601f19601f88011683010190508460208301528360408301528260608301529695505050505050565b634e487b7160e01b600052603260045260246000fdfea26469706673582212203a21509b86c80697ec52a61ad6abf5b40a6bc1aad9775ada1f93e99ee3b3031564736f6c63430008180033",
  "linkReferences": {},
  "deployedLinkReferences": {}
}