{
  "_format": "hh-sol-artifact-1",
  "contractName": "Escrow",
  "sourceName": "contracts/Escrow.sol",
  "abi": [
    {
      "inputs": [
        {
          "internalType": "address",
          "name": "initialOwner",
          "type": "address"
        }
      ],
      "stateMutability": "nonpayable",
      "type": "constructor"
    },
    {
      "inputs": [
        {
          "internalType": "address",
          "name": "owner",
          "type": "address"
        }
      ],
      "name": "OwnableInvalidOwner",
      "type": "error"
    },
    {
      "inputs": [
        {
          "internalType": "address",
          "name": "account",
          "type": "address"
        }
      ],
      "name": "OwnableUnauthorizedAccount",
      "type": "error"
    },
    {
      "inputs": [],
      "name": "ReentrancyGuardReentrantCall",
      "type": "error"
    },
    {
      "anonymous": false,
      "inputs": [
        {
          "indexed": true,
          "internalType": "bytes32",
          "name": "depositId",
          "type": "bytes32"
        },
        {
          "indexed": true,
          "internalType": "bytes32",
          "name": "caseId",
          "type": "bytes32"
        },
        {
          "indexed": false,
          "internalType": "address",
          "name": "payer",
          "type": "address"
        },
        {
          "indexed": false,
          "internalType": "address",
          "name": "payee",
          "type": "address"
        },
        {
          "indexed": false,
          "internalType": "uint256",
          "name": "amount",
          "type": "uint256"
        },
        {
          "indexed": false,
          "internalType": "string",
          "name": "milestone",
          "type": "string"
        }
      ],
      "name": "Deposited",
      "type": "event"
    },
    {
      "anonymous": false,
      "inputs": [
        {
          "indexed": true,
          "internalType": "address",
          "name": "previousOwner",
          "type": "address"
        },
        {
          "indexed": true,
          "internalType": "address",
          "name": "newOwner",
          "type": "address"
        }
      ],
      "name": "OwnershipTransferred",
      "type": "event"
    },
    {
      "anonymous": false,
      "inputs": [
        {
          "indexed": true,
          "internalType": "bytes32",
          "name": "depositId",
          "type": "bytes32"
        },
        {
          "indexed": false,
          "internalType": "address",
          "name": "payer",
          "type": "address"
        },
        {
          "indexed": false,
          "internalType": "uint256",
          "name": "amount",
          "type": "uint256"
        }
      ],
      "name": "Refunded",
      "type": "event"
    },
    {
      "anonymous": false,
      "inputs": [
        {
          "indexed": true,
          "internalType": "bytes32",
          "name": "depositId",
          "type": "bytes32"
        },
        {
          "indexed": false,
          "internalType": "address",
          "name": "payee",
          "type": "address"
        },
        {
          "indexed": false,
          "internalType": "uint256",
          "name": "amount",
          "type": "uint256"
        },
        {
          "indexed": false,
          "internalType": "uint256",
          "name": "timestamp",
          "type": "uint256"
        }
      ],
      "name": "Released",
      "type": "event"
    },
    {
      "inputs": [
        {
          "internalType": "bytes32",
          "name": "",
          "type": "bytes32"
        },
        {
          "internalType": "uint256",
          "name": "",
          "type": "uint256"
        }
      ],
      "name": "caseDeposits",
      "outputs": [
        {
          "internalType": "bytes32",
          "name": "",
          "type": "bytes32"
        }
      ],
      "stateMutability": "view",
      "type": "function"
    },
    {
      "inputs": [
        {
          "internalType": "bytes32",
          "name": "depositId",
          "type": "bytes32"
        },
        {
          "internalType": "bytes32",
          "name": "caseId",
          "type": "bytes32"
        },
        {
          "internalType": "address",
          "name": "payee",
          "type": "address"
        },
        {
          "internalType": "string",
          "name": "milestone",
          "type": "string"
        }
      ],
      "name": "deposit",
      "outputs": [],
      "stateMutability": "payable",
      "type": "function"
    },
    {
      "inputs": [
        {
          "internalType": "bytes32",
          "name": "",
          "type": "bytes32"
        }
      ],
      "name": "deposits",
      "outputs": [
        {
          "internalType": "bytes32",
          "name": "caseId",
          "type": "bytes32"
        },
        {
          "internalType": "address",
          "name": "payer",
          "type": "address"
        },
        {
          "internalType": "address",
          "name": "payee",
          "type": "address"
        },
        {
          "internalType": "uint256",
          "name": "amount",
          "type": "uint256"
        },
        {
          "internalType": "string",
          "name": "milestone",
          "type": "string"
        },
        {
          "internalType": "bool",
          "name": "isReleased",
          "type": "bool"
        },
        {
          "internalType": "bool",
          "name": "isRefunded",
          "type": "bool"
        },
        {
          "internalType": "uint256",
          "name": "depositedAt",
          "type": "uint256"
        },
        {
          "internalType": "uint256",
          "name": "releasedAt",
          "type": "uint256"
        }
      ],
      "stateMutability": "view",
      "type": "function"
    },
    {
      "inputs": [],
      "name": "getBalance",
      "outputs": [
        {
          "internalType": "uint256",
          "name": "",
          "type": "uint256"
        }
      ],
      "stateMutability": "view",
      "type": "function"
    },
    {
      "inputs": [],
      "name": "owner",
      "outputs": [
        {
          "internalType": "address",
          "name": "",
          "type": "address"
        }
      ],
      "stateMutability": "view",
      "type": "function"
    },
    {
      "inputs": [
        {
          "internalType": "bytes32",
          "name": "depositId",
          "type": "bytes32"
        }
      ],
      "name": "refund",
      "outputs": [],
      "stateMutability": "nonpayable",
      "type": "function"
    },
    {
      "inputs": [
        {
          "internalType": "bytes32",
          "name": "depositId",
          "type": "bytes32"
        }
      ],
      "name": "release",
      "outputs": [],
      "stateMutability": "nonpayable",
      "type": "function"
    },
    {
      "inputs": [],
      "name": "renounceOwnership",
      "outputs": [],
      "stateMutability": "nonpayable",
      "type": "function"
    },
    {
      "inputs": [],
      "name": "totalHeld",
      "outputs": [
        {
          "internalType": "uint256",
          "name": "",
          "type": "uint256"
        }
      ],
      "stateMutability": "view",
      "type": "function"
    },
    {
      "inputs": [
        {
          "internalType": "address",
          "name": "newOwner",
          "type": "address"
        }
      ],
      "name": "transferOwnership",
      "outputs": [],
      "stateMutability": "nonpayable",
      "type": "function"
    }
  ],
  "bytecode": "0x608060405234801561001057600080fd5b5060405161102638038061102683398101604081905261002f916100c2565b806001600160a01b03811661005e57604051631e4fbdf760e01b81526000600482015260240160405180910390fd5b61006781610072565b5050600180556100f2565b600080546001600160a01b038381166001600160a01b0319831681178455604051919092169283917f8be0079c531659141344cd1fd0a4f28419497f9722a3daafe3b4186f6b6457e09190a35050565b6000602082840312156100d457600080fd5b81516001600160a01b03811681146100eb57600080fd5b9392505050565b610f25806101016000396000f3fe6080604052600436106100915760003560e01c80637249fbb6116100595780637249fbb6146101445780638da5cb5b14610164578063ca0c3ad51461018c578063f2fde38b1461019f578063f43cc773146101bf57600080fd5b806312065fe0146100965780633d4dff7b146100b8578063637fd0f7146100ed57806367d42a8b1461010d578063715018a61461012f575b600080fd5b3480156100a257600080fd5b50475b6040519081526020015b60405180910390f35b3480156100c457600080fd5b506100d86100d3366004610b46565b6101d5565b6040516100af99989796959493929190610b5f565b3480156100f957600080fd5b506100a5610108366004610c04565b6102bb565b34801561011957600080fd5b5061012d610128366004610b46565b6102ec565b005b34801561013b57600080fd5b5061012d61054a565b34801561015057600080fd5b5061012d61015f366004610b46565b61055e565b34801561017057600080fd5b506000546040516001600160a01b0390911681526020016100af565b61012d61019a366004610c42565b610792565b3480156101ab57600080fd5b5061012d6101ba366004610cd6565b610a64565b3480156101cb57600080fd5b506100a560045481565b60026020819052600091825260409091208054600182015492820154600383015460048401805493956001600160a01b039081169593169391929161021990610cf8565b80601f016020809104026020016040519081016040528092919081815260200182805461024590610cf8565b80156102925780601f1061026757610100808354040283529160200191610292565b820191906000526020600020905b81548152906001019060200180831161027557829003601f168201915b50505060058401546006850154600790950154939460ff80831695610100909304169350915089565b600360205281600052604060002081815481106102d757600080fd5b90600052602060002001600091509150505481565b6102f4610a9f565b6102fc610acc565b600081815260026020526040902060018101546001600160a01b03166103655760405162461bcd60e51b8152602060048201526019602482015278115cd8dc9bddce8819195c1bdcda5d081b9bdd08199bdd5b99603a1b60448201526064015b60405180910390fd5b600581015460ff16156103b55760405162461bcd60e51b8152602060048201526018602482015277115cd8dc9bddce88185b1c9958591e481c995b19585cd95960421b604482015260640161035c565b6005810154610100900460ff161561040a5760405162461bcd60e51b8152602060048201526018602482015277115cd8dc9bddce88185b1c9958591e481c99599d5b99195960421b604482015260640161035c565b60058101805460ff19166001179055426007820155600381015460048054600090610436908490610d48565b9091555050600281015460038201546040516000926001600160a01b031691908381818185875af1925050503d806000811461048e576040519150601f19603f3d011682016040523d82523d6000602084013e610493565b606091505b50509050806104e45760405162461bcd60e51b815260206004820152601760248201527f457363726f773a207472616e73666572206661696c6564000000000000000000604482015260640161035c565b60028201546003830154604080516001600160a01b0390931683526020830191909152429082015283907fbaa21fb6000fbb6d014fac9cd1b0726799e6f352a967157a59f4b2da8ef32211906060015b60405180910390a2505061054760018055565b50565b610552610a9f565b61055c6000610af6565b565b610566610a9f565b61056e610acc565b600081815260026020526040902060018101546001600160a01b03166105d25760405162461bcd60e51b8152602060048201526019602482015278115cd8dc9bddce8819195c1bdcda5d081b9bdd08199bdd5b99603a1b604482015260640161035c565b600581015460ff16156106225760405162461bcd60e51b8152602060048201526018602482015277115cd8dc9bddce88185b1c9958591e481c995b19585cd95960421b604482015260640161035c565b6005810154610100900460ff16156106775760405162461bcd60e51b8152602060048201526018602482015277115cd8dc9bddce88185b1c9958591e481c99599d5b99195960421b604482015260640161035c565b60058101805461ff00191661010017905560038101546004805460009061069f908490610d48565b9091555050600181015460038201546040516000926001600160a01b031691908381818185875af1925050503d80600081146106f7576040519150601f19603f3d011682016040523d82523d6000602084013e6106fc565b606091505b50509050806107455760405162461bcd60e51b8152602060048201526015602482015274115cd8dc9bddce881c99599d5b990819985a5b1959605a1b604482015260640161035c565b60018201546003830154604080516001600160a01b039093168352602083019190915284917ff552ca82e113ac3c539c3d617f29fcd19c172a0c75dad017555c9e109f7fe1839101610534565b61079a610acc565b600034116107ea5760405162461bcd60e51b815260206004820152601f60248201527f457363726f773a206465706f73697420616d6f756e7420726571756972656400604482015260640161035c565b6000858152600260205260409020600101546001600160a01b0316156108525760405162461bcd60e51b815260206004820181905260248201527f457363726f773a206465706f736974496420616c726561647920657869737473604482015260640161035c565b6001600160a01b0383166108a05760405162461bcd60e51b8152602060048201526015602482015274457363726f773a20696e76616c696420706179656560581b604482015260640161035c565b604051806101200160405280858152602001336001600160a01b03168152602001846001600160a01b0316815260200134815260200183838080601f0160208091040260200160405190810160405280939291908181526020018383808284376000920182905250938552505050602080830182905260408084018390524260608086019190915260809485018490528a845260028084529382902086518155928601516001840180546001600160a01b03199081166001600160a01b039384161790915592870151948401805490931694169390931790559083015160038201559082015160048201906109959082610dc8565b5060a082015160058201805460c085015161ffff1990911692151561ff00191692909217610100921515830217905560e08301516006830155909101516007909101556000848152600360209081526040822080546001810182559083529082200186905560048054349290610a0c908490610e88565b9250508190555083857f88b154d813cf2279b5bcdb91b9790011bd3f2b47a6676cfbe59a9628fa3fbc6e3386348787604051610a4c959493929190610e9b565b60405180910390a3610a5d60018055565b5050505050565b610a6c610a9f565b6001600160a01b038116610a9657604051631e4fbdf760e01b81526000600482015260240161035c565b61054781610af6565b6000546001600160a01b0316331461055c5760405163118cdaa760e01b815233600482015260240161035c565b600260015403610aef57604051633ee5aeb560e01b815260040160405180910390fd5b6002600155565b600080546001600160a01b038381166001600160a01b0319831681178455604051919092169283917f8be0079c531659141344cd1fd0a4f28419497f9722a3daafe3b4186f6b6457e09190a35050565b600060208284031215610b5857600080fd5b5035919050565b60006101208b8352602060018060a01b03808d166020860152808c1660408601525089606085015281608085015288518083860152600092505b80831015610bb857898301820151858401610140015291810191610b99565b6101409250600083828701015282601f19601f8301168601019350505050610be460a083018715159052565b84151560c083015260e08201939093526101000152979650505050505050565b60008060408385031215610c1757600080fd5b50508035926020909101359150565b80356001600160a01b0381168114610c3d57600080fd5b919050565b600080600080600060808688031215610c5a57600080fd5b8535945060208601359350610c7160408701610c26565b9250606086013567ffffffffffffffff80821115610c8e57600080fd5b818801915088601f830112610ca257600080fd5b813581811115610cb157600080fd5b896020828501011115610cc357600080fd5b9699959850939650602001949392505050565b600060208284031215610ce857600080fd5b610cf182610c26565b9392505050565b600181811c90821680610d0c57607f821691505b602082108103610d2c57634e487b7160e01b600052602260045260246000fd5b50919050565b634e487b7160e01b600052601160045260246000fd5b81810381811115610d5b57610d5b610d32565b92915050565b634e487b7160e01b600052604160045260246000fd5b601f821115610dc3576000816000526020600020601f850160051c81016020861015610da05750805b601f850160051c820191505b81811015610dbf57828155600101610dac565b5050505b505050565b815167ffffffffffffffff811115610de257610de2610d61565b610df681610df08454610cf8565b84610d77565b602080601f831160018114610e2b5760008415610e135750858301515b600019600386901b1c1916600185901b178555610dbf565b600085815260208120601f198616915b82811015610e5a57888601518255948401946001909101908401610e3b565b5085821015610e785787850151600019600388901b60f8161c191681555b5050505050600190811b01905550565b80820180821115610d5b57610d5b610d32565b6001600160a01b038681168252851660208201526040810184905260806060820181905281018290526000828460a0840137600060a0848401015260a0601f19601f8501168301019050969550505050505056fea264697066735822122040b259a37a0160ef902376d5c5111f3e6a4d6cc530b3208f770e44b72b178a2264736f6c63430008180033",
  "linkReferences": {},
  "deployedLinkReferences": {}
}